{
  "address": "0xC5e008934C078DDf5F5178C84E0B670FB9EeDB49",
  "abi": [
    {
      "inputs": [
        {
          "internalType": "uint256",
          "name": "initialMint",
          "type": "uint256"
        },
        {
          "internalType": "address",
          "name": "treasury",
          "type": "address"
        }
      ],
      "stateMutability": "nonpayable",
      "type": "constructor"
    },
    {
      "anonymous": false,
      "inputs": [
        {
          "indexed": true,
          "internalType": "address",
          "name": "owner",
          "type": "address"
        },
        {
          "indexed": true,
          "internalType": "address",
          "name": "spender",
          "type": "address"
        },
        {
          "indexed": false,
          "internalType": "uint256",
          "name": "value",
          "type": "uint256"
        }
      ],
      "name": "Approval",
      "type": "event"
    },
    {
      "anonymous": false,
      "inputs": [
        {
          "indexed": true,
          "internalType": "address",
          "name": "delegator",
          "type": "address"
        },
        {
          "indexed": true,
          "internalType": "address",
          "name": "fromDelegate",
          "type": "address"
        },
        {
          "indexed": true,
          "internalType": "address",
          "name": "toDelegate",
          "type": "address"
        }
      ],
      "name": "DelegateChanged",
      "type": "event"
    },
    {
      "anonymous": false,
      "inputs": [
        {
          "indexed": true,
          "internalType": "address",
          "name": "delegate",
          "type": "address"
        },
        {
          "indexed": false,
          "internalType": "uint256",
          "name": "previousBalance",
          "type": "uint256"
        },
        {
          "indexed": false,
          "internalType": "uint256",
          "name": "newBalance",
          "type": "uint256"
        }
      ],
      "name": "DelegateVotesChanged",
      "type": "event"
    },
    {
      "anonymous": false,
      "inputs": [
        {
          "indexed": true,
          "internalType": "address",
          "name": "previousOwner",
          "type": "address"
        },
        {
          "indexed": true,
          "internalType": "address",
          "name": "newOwner",
          "type": "address"
        }
      ],
      "name": "OwnershipTransferred",
      "type": "event"
    },
    {
      "anonymous": false,
      "inputs": [
        {
          "indexed": true,
          "internalType": "address",
          "name": "from",
          "type": "address"
        },
        {
          "indexed": true,
          "internalType": "address",
          "name": "to",
          "type": "address"
        },
        {
          "indexed": false,
          "internalType": "uint256",
          "name": "value",
          "type": "uint256"
        }
      ],
      "name": "Transfer",
      "type": "event"
    },
    {
      "inputs": [],
      "name": "DELEGATION_TYPEHASH",
      "outputs": [
        {
          "internalType": "bytes32",
          "name": "",
          "type": "bytes32"
        }
      ],
      "stateMutability": "view",
      "type": "function"
    },
    {
      "inputs": [],
      "name": "DOMAIN_TYPEHASH",
      "outputs": [
        {
          "internalType": "bytes32",
          "name": "",
          "type": "bytes32"
        }
      ],
      "stateMutability": "view",
      "type": "function"
    },
    {
      "inputs": [],
      "name": "MAX_SUPPLY",
      "outputs": [
        {
          "internalType": "uint256",
          "name": "",
          "type": "uint256"
        }
      ],
      "stateMutability": "view",
      "type": "function"
    },
    {
      "inputs": [
        {
          "internalType": "address",
          "name": "owner",
          "type": "address"
        },
        {
          "internalType": "address",
          "name": "spender",
          "type": "address"
        }
      ],
      "name": "allowance",
      "outputs": [
        {
          "internalType": "uint256",
          "name": "",
          "type": "uint256"
        }
      ],
      "stateMutability": "view",
      "type": "function"
    },
    {
      "inputs": [
        {
          "internalType": "address",
          "name": "spender",
          "type": "address"
        },
        {
          "internalType": "uint256",
          "name": "amount",
          "type": "uint256"
        }
      ],
      "name": "approve",
      "outputs": [
        {
          "internalType": "bool",
          "name": "",
          "type": "bool"
        }
      ],
      "stateMutability": "nonpayable",
      "type": "function"
    },
    {
      "inputs": [
        {
          "internalType": "address",
          "name": "account",
          "type": "address"
        }
      ],
      "name": "balanceOf",
      "outputs": [
        {
          "internalType": "uint256",
          "name": "",
          "type": "uint256"
        }
      ],
      "stateMutability": "view",
      "type": "function"
    },
    {
      "inputs": [
        {
          "internalType": "uint256",
          "name": "_amount",
          "type": "uint256"
        }
      ],
      "name": "burn",
      "outputs": [],
      "stateMutability": "nonpayable",
      "type": "function"
    },
    {
      "inputs": [
        {
          "internalType": "address",
          "name": "",
          "type": "address"
        },
        {
          "internalType": "uint32",
          "name": "",
          "type": "uint32"
        }
      ],
      "name": "checkpoints",
      "outputs": [
        {
          "internalType": "uint32",
          "name": "fromBlock",
          "type": "uint32"
        },
        {
          "internalType": "uint256",
          "name": "votes",
          "type": "uint256"
        }
      ],
      "stateMutability": "view",
      "type": "function"
    },
    {
      "inputs": [],
      "name": "decimals",
      "outputs": [
        {
          "internalType": "uint8",
          "name": "",
          "type": "uint8"
        }
      ],
      "stateMutability": "view",
      "type": "function"
    },
    {
      "inputs": [
        {
          "internalType": "address",
          "name": "spender",
          "type": "address"
        },
        {
          "internalType": "uint256",
          "name": "subtractedValue",
          "type": "uint256"
        }
      ],
      "name": "decreaseAllowance",
      "outputs": [
        {
          "internalType": "bool",
          "name": "",
          "type": "bool"
        }
      ],
      "stateMutability": "nonpayable",
      "type": "function"
    },
    {
      "inputs": [
        {
          "internalType": "address",
          "name": "delegatee",
          "type": "address"
        }
      ],
      "name": "delegate",
      "outputs": [],
      "stateMutability": "nonpayable",
      "type": "function"
    },
    {
      "inputs": [
        {
          "internalType": "address",
          "name": "delegatee",
          "type": "address"
        },
        {
          "internalType": "uint256",
          "name": "nonce",
          "type": "uint256"
        },
        {
          "internalType": "uint256",
          "name": "expiry",
          "type": "uint256"
        },
        {
          "internalType": "uint8",
          "name": "v",
          "type": "uint8"
        },
        {
          "internalType": "bytes32",
          "name": "r",
          "type": "bytes32"
        },
        {
          "internalType": "bytes32",
          "name": "s",
          "type": "bytes32"
        }
      ],
      "name": "delegateBySig",
      "outputs": [],
      "stateMutability": "nonpayable",
      "type": "function"
    },
    {
      "inputs": [
        {
          "internalType": "address",
          "name": "delegator",
          "type": "address"
        }
      ],
      "name": "delegates",
      "outputs": [
        {
          "internalType": "address",
          "name": "",
          "type": "address"
        }
      ],
      "stateMutability": "view",
      "type": "function"
    },
    {
      "inputs": [
        {
          "internalType": "address",
          "name": "account",
          "type": "address"
        }
      ],
      "name": "getCurrentVotes",
      "outputs": [
        {
          "internalType": "uint256",
          "name": "",
          "type": "uint256"
        }
      ],
      "stateMutability": "view",
      "type": "function"
    },
    {
      "inputs": [],
      "name": "getMaxTotalSupply",
      "outputs": [
        {
          "internalType": "uint256",
          "name": "",
          "type": "uint256"
        }
      ],
      "stateMutability": "pure",
      "type": "function"
    },
    {
      "inputs": [
        {
          "internalType": "address",
          "name": "account",
          "type": "address"
        },
        {
          "internalType": "uint256",
          "name": "blockNumber",
          "type": "uint256"
        }
      ],
      "name": "getPriorVotes",
      "outputs": [
        {
          "internalType": "uint256",
          "name": "",
          "type": "uint256"
        }
      ],
      "stateMutability": "view",
      "type": "function"
    },
    {
      "inputs": [
        {
          "internalType": "address",
          "name": "spender",
          "type": "address"
        },
        {
          "internalType": "uint256",
          "name": "addedValue",
          "type": "uint256"
        }
      ],
      "name": "increaseAllowance",
      "outputs": [
        {
          "internalType": "bool",
          "name": "",
          "type": "bool"
        }
      ],
      "stateMutability": "nonpayable",
      "type": "function"
    },
    {
      "inputs": [
        {
          "internalType": "address",
          "name": "_to",
          "type": "address"
        },
        {
          "internalType": "uint256",
          "name": "_amount",
          "type": "uint256"
        }
      ],
      "name": "mint",
      "outputs": [],
      "stateMutability": "nonpayable",
      "type": "function"
    },
    {
      "inputs": [],
      "name": "name",
      "outputs": [
        {
          "internalType": "string",
          "name": "",
          "type": "string"
        }
      ],
      "stateMutability": "view",
      "type": "function"
    },
    {
      "inputs": [
        {
          "internalType": "address",
          "name": "",
          "type": "address"
        }
      ],
      "name": "nonces",
      "outputs": [
        {
          "internalType": "uint256",
          "name": "",
          "type": "uint256"
        }
      ],
      "stateMutability": "view",
      "type": "function"
    },
    {
      "inputs": [
        {
          "internalType": "address",
          "name": "",
          "type": "address"
        }
      ],
      "name": "numCheckpoints",
      "outputs": [
        {
          "internalType": "uint32",
          "name": "",
          "type": "uint32"
        }
      ],
      "stateMutability": "view",
      "type": "function"
    },
    {
      "inputs": [],
      "name": "owner",
      "outputs": [
        {
          "internalType": "address",
          "name": "",
          "type": "address"
        }
      ],
      "stateMutability": "view",
      "type": "function"
    },
    {
      "inputs": [],
      "name": "renounceOwnership",
      "outputs": [],
      "stateMutability": "nonpayable",
      "type": "function"
    },
    {
      "inputs": [],
      "name": "symbol",
      "outputs": [
        {
          "internalType": "string",
          "name": "",
          "type": "string"
        }
      ],
      "stateMutability": "view",
      "type": "function"
    },
    {
      "inputs": [],
      "name": "totalSupply",
      "outputs": [
        {
          "internalType": "uint256",
          "name": "",
          "type": "uint256"
        }
      ],
      "stateMutability": "view",
      "type": "function"
    },
    {
      "inputs": [
        {
          "internalType": "address",
          "name": "to",
          "type": "address"
        },
        {
          "internalType": "uint256",
          "name": "amount",
          "type": "uint256"
        }
      ],
      "name": "transfer",
      "outputs": [
        {
          "internalType": "bool",
          "name": "",
          "type": "bool"
        }
      ],
      "stateMutability": "nonpayable",
      "type": "function"
    },
    {
      "inputs": [
        {
          "internalType": "address",
          "name": "from",
          "type": "address"
        },
        {
          "internalType": "address",
          "name": "to",
          "type": "address"
        },
        {
          "internalType": "uint256",
          "name": "amount",
          "type": "uint256"
        }
      ],
      "name": "transferFrom",
      "outputs": [
        {
          "internalType": "bool",
          "name": "",
          "type": "bool"
        }
      ],
      "stateMutability": "nonpayable",
      "type": "function"
    },
    {
      "inputs": [
        {
          "internalType": "address",
          "name": "newOwner",
          "type": "address"
        }
      ],
      "name": "transferOwnership",
      "outputs": [],
      "stateMutability": "nonpayable",
      "type": "function"
    }
  ],
  "transactionHash": "0xf226d099fcaa5724b806748bb58219f744de74f3ce05e295bdc4d174f04892b7",
  "args": [
    "10000000000000000000000000",
    "0x13ee97D6C6236022600aFf83DCb7AB7fb64f6786"
  ],
  "numDeployments": 1,
  "solcInputHash": "68c472b34997d1f24be4ffa6a6e08749",
  "bytecode": "0x60806040523480156200001157600080fd5b50604051620020d2380380620020d2833981016040819052620000349162000312565b604051806040016040528060098152602001682c2129902a37b5b2b760b91b8152506040518060400160405280600381526020016258425360e81b81525081600390805190602001906200008a9291906200026c565b508051620000a09060049060208401906200026c565b505050620000bd620000b76200013860201b60201c565b6200013c565b811562000130576001600160a01b038116620000f65760405162461bcd60e51b8152600401620000ed906200034f565b60405180910390fd5b6a084595161401484a000000821115620001245760405162461bcd60e51b8152600401620000ed9062000372565b6200013081836200018e565b505062000438565b3390565b600580546001600160a01b038381166001600160a01b0319831681179093556040519116919082907f8be0079c531659141344cd1fd0a4f28419497f9722a3daafe3b4186f6b6457e090600090a35050565b6001600160a01b038216620001b75760405162461bcd60e51b8152600401620000ed9062000396565b620001c56000838362000267565b8060026000828254620001d99190620003d6565b90915550506001600160a01b0382166000908152602081905260408120805483929062000208908490620003d6565b90915550506040516001600160a01b038316906000907fddf252ad1be2c89b69c2b068fc378daa952ba7f163c4a11628f55a4df523b3ef906200024d908590620003cd565b60405180910390a3620002636000838362000267565b5050565b505050565b8280546200027a90620003fb565b90600052602060002090601f0160209004810192826200029e5760008555620002e9565b82601f10620002b957805160ff1916838001178555620002e9565b82800160010185558215620002e9579182015b82811115620002e9578251825591602001919060010190620002cc565b50620002f7929150620002fb565b5090565b5b80821115620002f75760008155600101620002fc565b6000806040838503121562000325578182fd5b825160208401519092506001600160a01b038116811462000344578182fd5b809150509250929050565b60208082526009908201526821547265617375727960b81b604082015260600190565b6020808252600a90820152694d41585f535550504c5960b01b604082015260600190565b6020808252601f908201527f45524332303a206d696e7420746f20746865207a65726f206164647265737300604082015260600190565b90815260200190565b60008219821115620003f657634e487b7160e01b81526011600452602481fd5b500190565b6002810460018216806200041057607f821691505b602082108114156200043257634e487b7160e01b600052602260045260246000fd5b50919050565b611c8a80620004486000396000f3fe608060405234801561001057600080fd5b50600436106101c45760003560e01c806370a08231116100f9578063a9059cbb11610097578063dd62ed3e11610071578063dd62ed3e14610387578063e7a324dc1461039a578063f1127ed8146103a2578063f2fde38b146103c3576101c4565b8063a9059cbb1461034e578063b4b5ea5714610361578063c3cda52014610374576101c4565b80637ecebe00116100d35780637ecebe00146103185780638da5cb5b1461032b57806395d89b4114610333578063a457c2d71461033b576101c4565b806370a08231146102ea578063715018a6146102fd578063782d6fe114610305576101c4565b80633950935111610166578063587cde1e11610140578063587cde1e1461028f5780635c19a95c146102af5780635db30bb1146102c25780636fcfff45146102ca576101c4565b8063395093511461025457806340c10f191461026757806342966c681461027c576101c4565b806320606b70116101a257806320606b701461021c57806323b872dd14610224578063313ce5671461023757806332cb6b0c1461024c576101c4565b806306fdde03146101c9578063095ea7b3146101e757806318160ddd14610207575b600080fd5b6101d16103d6565b6040516101de9190611635565b60405180910390f35b6101fa6101f53660046114af565b610468565b6040516101de91906115bb565b61020f61048c565b6040516101de91906115c6565b61020f610492565b6101fa610232366004611474565b6104b6565b61023f6104e4565b6040516101de9190611afb565b61020f6104e9565b6101fa6102623660046114af565b6104f8565b61027a6102753660046114af565b610524565b005b61027a61028a366004611574565b61057f565b6102a261029d366004611428565b61058c565b6040516101de91906115a7565b61027a6102bd366004611428565b6105ad565b61020f6105b7565b6102dd6102d8366004611428565b6105c6565b6040516101de9190611ad4565b61020f6102f8366004611428565b6105de565b61027a6105f9565b61020f6103133660046114af565b61060d565b61020f610326366004611428565b610832565b6102a2610844565b6101d1610853565b6101fa6103493660046114af565b610862565b6101fa61035c3660046114af565b6108aa565b61020f61036f366004611428565b6108c2565b61027a6103823660046114d8565b610937565b61020f610395366004611442565b610b12565b61020f610b3d565b6103b56103b0366004611536565b610b61565b6040516101de929190611ae5565b61027a6103d1366004611428565b610b8e565b6060600380546103e590611bb4565b80601f016020809104026020016040519081016040528092919081815260200182805461041190611bb4565b801561045e5780601f106104335761010080835404028352916020019161045e565b820191906000526020600020905b81548152906001019060200180831161044157829003601f168201915b5050505050905090565b600080610473610bc5565b9050610480818585610bc9565b60019150505b92915050565b60025490565b7f8cad95687ba82c2ce50e74f7b754645e5117c3a5bec8151c0726d5857980a86681565b6000806104c1610bc5565b90506104ce858285610c7d565b6104d9858585610cc7565b506001949350505050565b601290565b6a084595161401484a00000081565b600080610503610bc5565b90506104808185856105158589610b12565b61051f9190611b09565b610bc9565b61052c610deb565b6a084595161401484a00000061054a8261054461048c565b90610e2a565b11156105715760405162461bcd60e51b815260040161056890611a26565b60405180910390fd5b61057b8282610e36565b5050565b6105893382610efe565b50565b6001600160a01b03808216600090815260066020526040902054165b919050565b6105893382610ff0565b6a084595161401484a00000090565b60086020526000908152604090205463ffffffff1681565b6001600160a01b031660009081526020819052604090205490565b610601610deb565b61060b600061107f565b565b600043821061062e5760405162461bcd60e51b8152600401610568906118d3565b6001600160a01b03831660009081526008602052604090205463ffffffff168061065c576000915050610486565b6001600160a01b03841660009081526007602052604081208491610681600185611b8f565b63ffffffff908116825260208201929092526040016000205416116106ea576001600160a01b0384166000908152600760205260408120906106c4600184611b8f565b63ffffffff1663ffffffff16815260200190815260200160002060010154915050610486565b6001600160a01b038416600090815260076020908152604080832083805290915290205463ffffffff16831015610725576000915050610486565b600080610733600184611b8f565b90505b8163ffffffff168163ffffffff1611156107fb57600060026107588484611b8f565b6107629190611b49565b61076c9083611b8f565b6001600160a01b038816600090815260076020908152604080832063ffffffff80861685529083529281902081518083019092528054909316808252600190930154918101919091529192508714156107cf576020015194506104869350505050565b805163ffffffff168711156107e6578193506107f4565b6107f1600183611b8f565b92505b5050610736565b506001600160a01b038516600090815260076020908152604080832063ffffffff9094168352929052206001015491505092915050565b60096020526000908152604090205481565b6005546001600160a01b031690565b6060600480546103e590611bb4565b60008061086d610bc5565b9050600061087b8286610b12565b90508381101561089d5760405162461bcd60e51b815260040161056890611a4a565b6104d98286868403610bc9565b6000806108b5610bc5565b9050610480818585610cc7565b6001600160a01b03811660009081526008602052604081205463ffffffff16806108ed576000610930565b6001600160a01b038316600090815260076020526040812090610911600184611b8f565b63ffffffff1663ffffffff168152602001908152602001600020600101545b9392505050565b60007f8cad95687ba82c2ce50e74f7b754645e5117c3a5bec8151c0726d5857980a8666109626103d6565b805190602001206109716110d1565b3060405160200161098594939291906115f3565b60405160208183030381529060405280519060200120905060007fe48329057bfd03d55e49b547132e39cffd9c1820ad7b9d4c5307691425d15adf8888886040516020016109d694939291906115cf565b60405160208183030381529060405280519060200120905060008282604051602001610a0392919061158c565b604051602081830303815290604052805190602001209050600060018288888860405160008152602001604052604051610a409493929190611617565b6020604051602081039080840390855afa158015610a62573d6000803e3d6000fd5b5050604051601f1901519150506001600160a01b038116610a955760405162461bcd60e51b815260040161056890611858565b6001600160a01b0381166000908152600960205260408120805491610ab983611bef565b919050558914610adb5760405162461bcd60e51b81526004016105689061191a565b87421115610afb5760405162461bcd60e51b815260040161056890611795565b610b05818b610ff0565b505050505b505050505050565b6001600160a01b03918216600090815260016020908152604080832093909416825291909152205490565b7fe48329057bfd03d55e49b547132e39cffd9c1820ad7b9d4c5307691425d15adf81565b60076020908152600092835260408084209091529082529020805460019091015463ffffffff9091169082565b610b96610deb565b6001600160a01b038116610bbc5760405162461bcd60e51b81526004016105689061170d565b6105898161107f565b3390565b6001600160a01b038316610bef5760405162461bcd60e51b8152600401610568906119e2565b6001600160a01b038216610c155760405162461bcd60e51b815260040161056890611753565b6001600160a01b0380841660008181526001602090815260408083209487168084529490915290819020849055517f8c5be1e5ebec7d5bd14f71427d1e84f3dd0314c0f7b2291e5b200ac8c7c3b92590610c709085906115c6565b60405180910390a3505050565b6000610c898484610b12565b90506000198114610cc15781811015610cb45760405162461bcd60e51b8152600401610568906117db565b610cc18484848403610bc9565b50505050565b6001600160a01b038316610ced5760405162461bcd60e51b81526004016105689061199d565b6001600160a01b038216610d135760405162461bcd60e51b815260040161056890611688565b610d1e838383610feb565b6001600160a01b03831660009081526020819052604090205481811015610d575760405162461bcd60e51b815260040161056890611812565b6001600160a01b03808516600090815260208190526040808220858503905591851681529081208054849290610d8e908490611b09565b92505081905550826001600160a01b0316846001600160a01b03167fddf252ad1be2c89b69c2b068fc378daa952ba7f163c4a11628f55a4df523b3ef84604051610dd891906115c6565b60405180910390a3610cc1848484610feb565b610df3610bc5565b6001600160a01b0316610e04610844565b6001600160a01b03161461060b5760405162461bcd60e51b81526004016105689061189e565b60006109308284611b09565b6001600160a01b038216610e5c5760405162461bcd60e51b815260040161056890611a8f565b610e6860008383610feb565b8060026000828254610e7a9190611b09565b90915550506001600160a01b03821660009081526020819052604081208054839290610ea7908490611b09565b90915550506040516001600160a01b038316906000907fddf252ad1be2c89b69c2b068fc378daa952ba7f163c4a11628f55a4df523b3ef90610eea9085906115c6565b60405180910390a361057b60008383610feb565b6001600160a01b038216610f245760405162461bcd60e51b81526004016105689061195c565b610f3082600083610feb565b6001600160a01b03821660009081526020819052604090205481811015610f695760405162461bcd60e51b8152600401610568906116cb565b6001600160a01b0383166000908152602081905260408120838303905560028054849290610f98908490611b78565b90915550506040516000906001600160a01b038516907fddf252ad1be2c89b69c2b068fc378daa952ba7f163c4a11628f55a4df523b3ef90610fdb9086906115c6565b60405180910390a3610feb836000845b505050565b6001600160a01b0380831660009081526006602052604081205490911690611017846105de565b6001600160a01b0385811660008181526006602052604080822080546001600160a01b031916898616908117909155905194955093928616927f3134e8a2e6d97e929a7e54011ea5485d7d196dd5f0ba4d4ef95803e8e3fc257f9190a4610cc18284836110d5565b600580546001600160a01b038381166001600160a01b0319831681179093556040519116919082907f8be0079c531659141344cd1fd0a4f28419497f9722a3daafe3b4186f6b6457e090600090a35050565b4690565b816001600160a01b0316836001600160a01b0316141580156110f75750600081115b15610feb576001600160a01b0383161561119a576001600160a01b03831660009081526008602052604081205463ffffffff16908161113757600061117a565b6001600160a01b03851660009081526007602052604081209061115b600185611b8f565b63ffffffff1663ffffffff168152602001908152602001600020600101545b905060006111888285611234565b905061119686848484611240565b5050505b6001600160a01b03821615610feb576001600160a01b03821660009081526008602052604081205463ffffffff1690816111d5576000611218565b6001600160a01b0384166000908152600760205260408120906111f9600185611b8f565b63ffffffff1663ffffffff168152602001908152602001600020600101545b905060006112268285610e2a565b9050610b0a85848484611240565b60006109308284611b78565b600061126443604051806060016040528060348152602001611c21603491396113e1565b905060008463ffffffff161180156112be57506001600160a01b038516600090815260076020526040812063ffffffff8316916112a2600188611b8f565b63ffffffff908116825260208201929092526040016000205416145b15611307576001600160a01b038516600090815260076020526040812083916112e8600188611b8f565b63ffffffff168152602081019190915260400160002060010155611397565b60408051808201825263ffffffff838116825260208083018681526001600160a01b038a166000908152600783528581208a851682529092529390209151825463ffffffff191691161781559051600191820155611366908590611b21565b6001600160a01b0386166000908152600860205260409020805463ffffffff191663ffffffff929092169190911790555b846001600160a01b03167fdec2bacdd2f05b59de34da9b523dff8be42e5e38e818c82fdb0bae774387a72484846040516113d2929190611ac6565b60405180910390a25050505050565b60008164010000000084106114095760405162461bcd60e51b81526004016105689190611635565b509192915050565b80356001600160a01b03811681146105a857600080fd5b600060208284031215611439578081fd5b61093082611411565b60008060408385031215611454578081fd5b61145d83611411565b915061146b60208401611411565b90509250929050565b600080600060608486031215611488578081fd5b61149184611411565b925061149f60208501611411565b9150604084013590509250925092565b600080604083850312156114c1578182fd5b6114ca83611411565b946020939093013593505050565b60008060008060008060c087890312156114f0578182fd5b6114f987611411565b95506020870135945060408701359350606087013560ff8116811461151c578283fd5b9598949750929560808101359460a0909101359350915050565b60008060408385031215611548578182fd5b61155183611411565b9150602083013563ffffffff81168114611569578182fd5b809150509250929050565b600060208284031215611585578081fd5b5035919050565b61190160f01b81526002810192909252602282015260420190565b6001600160a01b0391909116815260200190565b901515815260200190565b90815260200190565b9384526001600160a01b039290921660208401526040830152606082015260800190565b938452602084019290925260408301526001600160a01b0316606082015260800190565b93845260ff9290921660208401526040830152606082015260800190565b6000602080835283518082850152825b8181101561166157858101830151858201604001528201611645565b818111156116725783604083870101525b50601f01601f1916929092016040019392505050565b60208082526023908201527f45524332303a207472616e7366657220746f20746865207a65726f206164647260408201526265737360e81b606082015260800190565b60208082526022908201527f45524332303a206275726e20616d6f756e7420657863656564732062616c616e604082015261636560f01b606082015260800190565b60208082526026908201527f4f776e61626c653a206e6577206f776e657220697320746865207a65726f206160408201526564647265737360d01b606082015260800190565b60208082526022908201527f45524332303a20617070726f766520746f20746865207a65726f206164647265604082015261737360f01b606082015260800190565b60208082526026908201527f43414b453a3a64656c656761746542795369673a207369676e617475726520656040820152651e1c1a5c995960d21b606082015260800190565b6020808252601d908201527f45524332303a20696e73756666696369656e7420616c6c6f77616e6365000000604082015260600190565b60208082526026908201527f45524332303a207472616e7366657220616d6f756e7420657863656564732062604082015265616c616e636560d01b606082015260800190565b60208082526026908201527f43414b453a3a64656c656761746542795369673a20696e76616c6964207369676040820152656e617475726560d01b606082015260800190565b6020808252818101527f4f776e61626c653a2063616c6c6572206973206e6f7420746865206f776e6572604082015260600190565b60208082526027908201527f43414b453a3a6765745072696f72566f7465733a206e6f742079657420646574604082015266195c9b5a5b995960ca1b606082015260800190565b60208082526022908201527f43414b453a3a64656c656761746542795369673a20696e76616c6964206e6f6e604082015261636560f01b606082015260800190565b60208082526021908201527f45524332303a206275726e2066726f6d20746865207a65726f206164647265736040820152607360f81b606082015260800190565b60208082526025908201527f45524332303a207472616e736665722066726f6d20746865207a65726f206164604082015264647265737360d81b606082015260800190565b60208082526024908201527f45524332303a20617070726f76652066726f6d20746865207a65726f206164646040820152637265737360e01b606082015260800190565b6020808252600a90820152694d41585f535550504c5960b01b604082015260600190565b60208082526025908201527f45524332303a2064656372656173656420616c6c6f77616e63652062656c6f77604082015264207a65726f60d81b606082015260800190565b6020808252601f908201527f45524332303a206d696e7420746f20746865207a65726f206164647265737300604082015260600190565b918252602082015260400190565b63ffffffff91909116815260200190565b63ffffffff929092168252602082015260400190565b60ff91909116815260200190565b60008219821115611b1c57611b1c611c0a565b500190565b600063ffffffff808316818516808303821115611b4057611b40611c0a565b01949350505050565b600063ffffffff80841680611b6c57634e487b7160e01b83526012600452602483fd5b92169190910492915050565b600082821015611b8a57611b8a611c0a565b500390565b600063ffffffff83811690831681811015611bac57611bac611c0a565b039392505050565b600281046001821680611bc857607f821691505b60208210811415611be957634e487b7160e01b600052602260045260246000fd5b50919050565b6000600019821415611c0357611c03611c0a565b5060010190565b634e487b7160e01b600052601160045260246000fdfe43414b453a3a5f7772697465436865636b706f696e743a20626c6f636b206e756d62657220657863656564732033322062697473a2646970667358221220dd439522b3eae8baa142b46f3d5d4ff0f529a04cd5940f7bb09797798d8221fc64736f6c63430008000033"
}