{
  "address": "0xe7f1725E7734CE288F8367e1Bb143E90bb3F0512",
  "abi": [
    {
      "inputs": [
        {
          "internalType": "address",
          "name": "_factory",
          "type": "address"
        },
        {
          "internalType": "address",
          "name": "_WETH",
          "type": "address"
        }
      ],
      "stateMutability": "nonpayable",
      "type": "constructor"
    },
    {
      "inputs": [],
      "name": "WETH",
      "outputs": [
        {
          "internalType": "address",
          "name": "",
          "type": "address"
        }
      ],
      "stateMutability": "view",
      "type": "function"
    },
    {
      "inputs": [
        {
          "internalType": "address",
          "name": "tokenA",
          "type": "address"
        },
        {
          "internalType": "address",
          "name": "tokenB",
          "type": "address"
        },
        {
          "internalType": "uint256",
          "name": "amountADesired",
          "type": "uint256"
        },
        {
          "internalType": "uint256",
          "name": "amountBDesired",
          "type": "uint256"
        },
        {
          "internalType": "uint256",
          "name": "amountAMin",
          "type": "uint256"
        },
        {
          "internalType": "uint256",
          "name": "amountBMin",
          "type": "uint256"
        },
        {
          "internalType": "address",
          "name": "to",
          "type": "address"
        },
        {
          "internalType": "uint256",
          "name": "deadline",
          "type": "uint256"
        }
      ],
      "name": "addLiquidity",
      "outputs": [
        {
          "internalType": "uint256",
          "name": "amountA",
          "type": "uint256"
        },
        {
          "internalType": "uint256",
          "name": "amountB",
          "type": "uint256"
        },
        {
          "internalType": "uint256",
          "name": "liquidity",
          "type": "uint256"
        }
      ],
      "stateMutability": "nonpayable",
      "type": "function"
    },
    {
      "inputs": [
        {
          "internalType": "address",
          "name": "token",
          "type": "address"
        },
        {
          "internalType": "uint256",
          "name": "amountTokenDesired",
          "type": "uint256"
        },
        {
          "internalType": "uint256",
          "name": "amountTokenMin",
          "type": "uint256"
        },
        {
          "internalType": "uint256",
          "name": "amountETHMin",
          "type": "uint256"
        },
        {
          "internalType": "address",
          "name": "to",
          "type": "address"
        },
        {
          "internalType": "uint256",
          "name": "deadline",
          "type": "uint256"
        }
      ],
      "name": "addLiquidityETH",
      "outputs": [
        {
          "internalType": "uint256",
          "name": "amountToken",
          "type": "uint256"
        },
        {
          "internalType": "uint256",
          "name": "amountETH",
          "type": "uint256"
        },
        {
          "internalType": "uint256",
          "name": "liquidity",
          "type": "uint256"
        }
      ],
      "stateMutability": "payable",
      "type": "function"
    },
    {
      "inputs": [],
      "name": "factory",
      "outputs": [
        {
          "internalType": "address",
          "name": "",
          "type": "address"
        }
      ],
      "stateMutability": "view",
      "type": "function"
    },
    {
      "inputs": [
        {
          "internalType": "uint256",
          "name": "amountOut",
          "type": "uint256"
        },
        {
          "internalType": "uint256",
          "name": "reserveIn",
          "type": "uint256"
        },
        {
          "internalType": "uint256",
          "name": "reserveOut",
          "type": "uint256"
        }
      ],
      "name": "getAmountIn",
      "outputs": [
        {
          "internalType": "uint256",
          "name": "amountIn",
          "type": "uint256"
        }
      ],
      "stateMutability": "pure",
      "type": "function"
    },
    {
      "inputs": [
        {
          "internalType": "uint256",
          "name": "amountIn",
          "type": "uint256"
        },
        {
          "internalType": "uint256",
          "name": "reserveIn",
          "type": "uint256"
        },
        {
          "internalType": "uint256",
          "name": "reserveOut",
          "type": "uint256"
        }
      ],
      "name": "getAmountOut",
      "outputs": [
        {
          "internalType": "uint256",
          "name": "amountOut",
          "type": "uint256"
        }
      ],
      "stateMutability": "pure",
      "type": "function"
    },
    {
      "inputs": [
        {
          "internalType": "uint256",
          "name": "amountOut",
          "type": "uint256"
        },
        {
          "internalType": "address[]",
          "name": "path",
          "type": "address[]"
        }
      ],
      "name": "getAmountsIn",
      "outputs": [
        {
          "internalType": "uint256[]",
          "name": "amounts",
          "type": "uint256[]"
        }
      ],
      "stateMutability": "view",
      "type": "function"
    },
    {
      "inputs": [
        {
          "internalType": "uint256",
          "name": "amountIn",
          "type": "uint256"
        },
        {
          "internalType": "address[]",
          "name": "path",
          "type": "address[]"
        }
      ],
      "name": "getAmountsOut",
      "outputs": [
        {
          "internalType": "uint256[]",
          "name": "amounts",
          "type": "uint256[]"
        }
      ],
      "stateMutability": "view",
      "type": "function"
    },
    {
      "inputs": [],
      "name": "owner",
      "outputs": [
        {
          "internalType": "address",
          "name": "",
          "type": "address"
        }
      ],
      "stateMutability": "view",
      "type": "function"
    },
    {
      "inputs": [
        {
          "internalType": "uint256",
          "name": "amountA",
          "type": "uint256"
        },
        {
          "internalType": "uint256",
          "name": "reserveA",
          "type": "uint256"
        },
        {
          "internalType": "uint256",
          "name": "reserveB",
          "type": "uint256"
        }
      ],
      "name": "quote",
      "outputs": [
        {
          "internalType": "uint256",
          "name": "amountB",
          "type": "uint256"
        }
      ],
      "stateMutability": "pure",
      "type": "function"
    },
    {
      "inputs": [
        {
          "internalType": "address",
          "name": "tokenA",
          "type": "address"
        },
        {
          "internalType": "address",
          "name": "tokenB",
          "type": "address"
        },
        {
          "internalType": "uint256",
          "name": "liquidity",
          "type": "uint256"
        },
        {
          "internalType": "uint256",
          "name": "amountAMin",
          "type": "uint256"
        },
        {
          "internalType": "uint256",
          "name": "amountBMin",
          "type": "uint256"
        },
        {
          "internalType": "address",
          "name": "to",
          "type": "address"
        },
        {
          "internalType": "uint256",
          "name": "deadline",
          "type": "uint256"
        }
      ],
      "name": "removeLiquidity",
      "outputs": [
        {
          "internalType": "uint256",
          "name": "amountA",
          "type": "uint256"
        },
        {
          "internalType": "uint256",
          "name": "amountB",
          "type": "uint256"
        }
      ],
      "stateMutability": "nonpayable",
      "type": "function"
    },
    {
      "inputs": [
        {
          "internalType": "address",
          "name": "token",
          "type": "address"
        },
        {
          "internalType": "uint256",
          "name": "liquidity",
          "type": "uint256"
        },
        {
          "internalType": "uint256",
          "name": "amountTokenMin",
          "type": "uint256"
        },
        {
          "internalType": "uint256",
          "name": "amountETHMin",
          "type": "uint256"
        },
        {
          "internalType": "address",
          "name": "to",
          "type": "address"
        },
        {
          "internalType": "uint256",
          "name": "deadline",
          "type": "uint256"
        }
      ],
      "name": "removeLiquidityETH",
      "outputs": [
        {
          "internalType": "uint256",
          "name": "amountToken",
          "type": "uint256"
        },
        {
          "internalType": "uint256",
          "name": "amountETH",
          "type": "uint256"
        }
      ],
      "stateMutability": "nonpayable",
      "type": "function"
    },
    {
      "inputs": [
        {
          "internalType": "address",
          "name": "token",
          "type": "address"
        },
        {
          "internalType": "uint256",
          "name": "liquidity",
          "type": "uint256"
        },
        {
          "internalType": "uint256",
          "name": "amountTokenMin",
          "type": "uint256"
        },
        {
          "internalType": "uint256",
          "name": "amountETHMin",
          "type": "uint256"
        },
        {
          "internalType": "address",
          "name": "to",
          "type": "address"
        },
        {
          "internalType": "uint256",
          "name": "deadline",
          "type": "uint256"
        }
      ],
      "name": "removeLiquidityETHSupportingFeeOnTransferTokens",
      "outputs": [
        {
          "internalType": "uint256",
          "name": "amountETH",
          "type": "uint256"
        }
      ],
      "stateMutability": "nonpayable",
      "type": "function"
    },
    {
      "inputs": [
        {
          "internalType": "address",
          "name": "token",
          "type": "address"
        },
        {
          "internalType": "uint256",
          "name": "liquidity",
          "type": "uint256"
        },
        {
          "internalType": "uint256",
          "name": "amountTokenMin",
          "type": "uint256"
        },
        {
          "internalType": "uint256",
          "name": "amountETHMin",
          "type": "uint256"
        },
        {
          "internalType": "address",
          "name": "to",
          "type": "address"
        },
        {
          "internalType": "uint256",
          "name": "deadline",
          "type": "uint256"
        },
        {
          "internalType": "bool",
          "name": "approveMax",
          "type": "bool"
        },
        {
          "internalType": "uint8",
          "name": "v",
          "type": "uint8"
        },
        {
          "internalType": "bytes32",
          "name": "r",
          "type": "bytes32"
        },
        {
          "internalType": "bytes32",
          "name": "s",
          "type": "bytes32"
        }
      ],
      "name": "removeLiquidityETHWithPermit",
      "outputs": [
        {
          "internalType": "uint256",
          "name": "amountToken",
          "type": "uint256"
        },
        {
          "internalType": "uint256",
          "name": "amountETH",
          "type": "uint256"
        }
      ],
      "stateMutability": "nonpayable",
      "type": "function"
    },
    {
      "inputs": [
        {
          "internalType": "address",
          "name": "token",
          "type": "address"
        },
        {
          "internalType": "uint256",
          "name": "liquidity",
          "type": "uint256"
        },
        {
          "internalType": "uint256",
          "name": "amountTokenMin",
          "type": "uint256"
        },
        {
          "internalType": "uint256",
          "name": "amountETHMin",
          "type": "uint256"
        },
        {
          "internalType": "address",
          "name": "to",
          "type": "address"
        },
        {
          "internalType": "uint256",
          "name": "deadline",
          "type": "uint256"
        },
        {
          "internalType": "bool",
          "name": "approveMax",
          "type": "bool"
        },
        {
          "internalType": "uint8",
          "name": "v",
          "type": "uint8"
        },
        {
          "internalType": "bytes32",
          "name": "r",
          "type": "bytes32"
        },
        {
          "internalType": "bytes32",
          "name": "s",
          "type": "bytes32"
        }
      ],
      "name": "removeLiquidityETHWithPermitSupportingFeeOnTransferTokens",
      "outputs": [
        {
          "internalType": "uint256",
          "name": "amountETH",
          "type": "uint256"
        }
      ],
      "stateMutability": "nonpayable",
      "type": "function"
    },
    {
      "inputs": [
        {
          "internalType": "address",
          "name": "tokenA",
          "type": "address"
        },
        {
          "internalType": "address",
          "name": "tokenB",
          "type": "address"
        },
        {
          "internalType": "uint256",
          "name": "liquidity",
          "type": "uint256"
        },
        {
          "internalType": "uint256",
          "name": "amountAMin",
          "type": "uint256"
        },
        {
          "internalType": "uint256",
          "name": "amountBMin",
          "type": "uint256"
        },
        {
          "internalType": "address",
          "name": "to",
          "type": "address"
        },
        {
          "internalType": "uint256",
          "name": "deadline",
          "type": "uint256"
        },
        {
          "internalType": "bool",
          "name": "approveMax",
          "type": "bool"
        },
        {
          "internalType": "uint8",
          "name": "v",
          "type": "uint8"
        },
        {
          "internalType": "bytes32",
          "name": "r",
          "type": "bytes32"
        },
        {
          "internalType": "bytes32",
          "name": "s",
          "type": "bytes32"
        }
      ],
      "name": "removeLiquidityWithPermit",
      "outputs": [
        {
          "internalType": "uint256",
          "name": "amountA",
          "type": "uint256"
        },
        {
          "internalType": "uint256",
          "name": "amountB",
          "type": "uint256"
        }
      ],
      "stateMutability": "nonpayable",
      "type": "function"
    },
    {
      "inputs": [
        {
          "internalType": "uint256",
          "name": "amountOut",
          "type": "uint256"
        },
        {
          "internalType": "address[]",
          "name": "path",
          "type": "address[]"
        },
        {
          "internalType": "address",
          "name": "to",
          "type": "address"
        },
        {
          "internalType": "uint256",
          "name": "deadline",
          "type": "uint256"
        }
      ],
      "name": "swapETHForExactTokens",
      "outputs": [
        {
          "internalType": "uint256[]",
          "name": "amounts",
          "type": "uint256[]"
        }
      ],
      "stateMutability": "payable",
      "type": "function"
    },
    {
      "inputs": [
        {
          "internalType": "uint256",
          "name": "amountOutMin",
          "type": "uint256"
        },
        {
          "internalType": "address[]",
          "name": "path",
          "type": "address[]"
        },
        {
          "internalType": "address",
          "name": "to",
          "type": "address"
        },
        {
          "internalType": "uint256",
          "name": "deadline",
          "type": "uint256"
        }
      ],
      "name": "swapExactETHForTokens",
      "outputs": [
        {
          "internalType": "uint256[]",
          "name": "amounts",
          "type": "uint256[]"
        }
      ],
      "stateMutability": "payable",
      "type": "function"
    },
    {
      "inputs": [
        {
          "internalType": "uint256",
          "name": "amountOutMin",
          "type": "uint256"
        },
        {
          "internalType": "address[]",
          "name": "path",
          "type": "address[]"
        },
        {
          "internalType": "address",
          "name": "to",
          "type": "address"
        },
        {
          "internalType": "uint256",
          "name": "deadline",
          "type": "uint256"
        }
      ],
      "name": "swapExactETHForTokensSupportingFeeOnTransferTokens",
      "outputs": [],
      "stateMutability": "payable",
      "type": "function"
    },
    {
      "inputs": [
        {
          "internalType": "uint256",
          "name": "amountIn",
          "type": "uint256"
        },
        {
          "internalType": "uint256",
          "name": "amountOutMin",
          "type": "uint256"
        },
        {
          "internalType": "address[]",
          "name": "path",
          "type": "address[]"
        },
        {
          "internalType": "address",
          "name": "to",
          "type": "address"
        },
        {
          "internalType": "uint256",
          "name": "deadline",
          "type": "uint256"
        }
      ],
      "name": "swapExactTokensForETH",
      "outputs": [
        {
          "internalType": "uint256[]",
          "name": "amounts",
          "type": "uint256[]"
        }
      ],
      "stateMutability": "nonpayable",
      "type": "function"
    },
    {
      "inputs": [
        {
          "internalType": "uint256",
          "name": "amountIn",
          "type": "uint256"
        },
        {
          "internalType": "uint256",
          "name": "amountOutMin",
          "type": "uint256"
        },
        {
          "internalType": "address[]",
          "name": "path",
          "type": "address[]"
        },
        {
          "internalType": "address",
          "name": "to",
          "type": "address"
        },
        {
          "internalType": "uint256",
          "name": "deadline",
          "type": "uint256"
        }
      ],
      "name": "swapExactTokensForETHSupportingFeeOnTransferTokens",
      "outputs": [],
      "stateMutability": "nonpayable",
      "type": "function"
    },
    {
      "inputs": [
        {
          "internalType": "uint256",
          "name": "amountIn",
          "type": "uint256"
        },
        {
          "internalType": "uint256",
          "name": "amountOutMin",
          "type": "uint256"
        },
        {
          "internalType": "address[]",
          "name": "path",
          "type": "address[]"
        },
        {
          "internalType": "address",
          "name": "to",
          "type": "address"
        },
        {
          "internalType": "uint256",
          "name": "deadline",
          "type": "uint256"
        }
      ],
      "name": "swapExactTokensForTokens",
      "outputs": [
        {
          "internalType": "uint256[]",
          "name": "amounts",
          "type": "uint256[]"
        }
      ],
      "stateMutability": "nonpayable",
      "type": "function"
    },
    {
      "inputs": [
        {
          "internalType": "uint256",
          "name": "amountIn",
          "type": "uint256"
        },
        {
          "internalType": "uint256",
          "name": "amountOutMin",
          "type": "uint256"
        },
        {
          "internalType": "address[]",
          "name": "path",
          "type": "address[]"
        },
        {
          "internalType": "address",
          "name": "to",
          "type": "address"
        },
        {
          "internalType": "uint256",
          "name": "deadline",
          "type": "uint256"
        }
      ],
      "name": "swapExactTokensForTokensSupportingFeeOnTransferTokens",
      "outputs": [],
      "stateMutability": "nonpayable",
      "type": "function"
    },
    {
      "inputs": [
        {
          "internalType": "uint256",
          "name": "amountOut",
          "type": "uint256"
        },
        {
          "internalType": "uint256",
          "name": "amountInMax",
          "type": "uint256"
        },
        {
          "internalType": "address[]",
          "name": "path",
          "type": "address[]"
        },
        {
          "internalType": "address",
          "name": "to",
          "type": "address"
        },
        {
          "internalType": "uint256",
          "name": "deadline",
          "type": "uint256"
        }
      ],
      "name": "swapTokensForExactETH",
      "outputs": [
        {
          "internalType": "uint256[]",
          "name": "amounts",
          "type": "uint256[]"
        }
      ],
      "stateMutability": "nonpayable",
      "type": "function"
    },
    {
      "inputs": [
        {
          "internalType": "uint256",
          "name": "amountOut",
          "type": "uint256"
        },
        {
          "internalType": "uint256",
          "name": "amountInMax",
          "type": "uint256"
        },
        {
          "internalType": "address[]",
          "name": "path",
          "type": "address[]"
        },
        {
          "internalType": "address",
          "name": "to",
          "type": "address"
        },
        {
          "internalType": "uint256",
          "name": "deadline",
          "type": "uint256"
        }
      ],
      "name": "swapTokensForExactTokens",
      "outputs": [
        {
          "internalType": "uint256[]",
          "name": "amounts",
          "type": "uint256[]"
        }
      ],
      "stateMutability": "nonpayable",
      "type": "function"
    },
    {
      "stateMutability": "payable",
      "type": "receive"
    }
  ],
  "transactionHash": "0x83a4501c931032ed325e039a4a326d746e68d103c1a2864f46b5eed435936f9d",
  "args": [
    "0x5FbDB2315678afecb367f032d93F642f64180aa3",
    "0x4200000000000000000000000000000000000006"
  ],
  "numDeployments": 1,
  "solcInputHash": "ec6838e032c53b80e97885e63d3eb43f",
  "bytecode": "0x60c060405234801561001057600080fd5b5060405162004957380380620049578339818101604052604081101561003557600080fd5b5080516020909101516001600160601b0319606092831b8116608052911b1660a052600080546001600160a01b0319163317905560805160601c60a05160601c6147c062000197600039806101aa5280610d5a5280610d955280610e8c52806110bc528061144652806115be52806119855280611a915280611b475280611c155280611d6d5280611df5528061204952806120c45280612173528061223f52806122e6528061235a52806128715280612adc5280612b325280612b665280612bda5280612d725280612ec75280612f4f525080610f2c5280611003528061118252806111bb52806112f652806114e6528061159c528061170c5280611cba5280611e275280611f8a528061238c52806125e552806127f6528061281f528061284f52806129bc5280612b105280612e175280612f81528061386d52806138b05280613b935280613d195280614183528061424a52806142ca52506147c06000f3fe60806040526004361061019a5760003560e01c80638803dbee116100e1578063baa2abde1161008a578063ded9382a11610064578063ded9382a14610b4e578063e8e3370014610bc1578063f305d71914610c41578063fb3bdb4114610c87576101d3565b8063baa2abde14610a25578063c45a015514610a82578063d06ca61f14610a97576101d3565b8063ad615dec116100bb578063ad615dec14610916578063af2979eb1461094c578063b6f9de951461099f576101d3565b80638803dbee146108385780638da5cb5b146108d0578063ad5c464814610901576101d3565b80634a25d94a11610143578063791ac9471161011d578063791ac947146106e45780637ff36ab51461077c57806385f8c25914610802576101d3565b80634a25d94a146105415780635b0d5984146105d95780635c11d7951461064c576101d3565b80631f00ca74116101745780631f00ca74146103745780632195995c1461042b57806338ed1739146104a9576101d3565b806302751cec146101d8578063054d50d41461024457806318cbafe51461028c576101d3565b366101d357336001600160a01b037f000000000000000000000000000000000000000000000000000000000000000016146101d157fe5b005b600080fd5b3480156101e457600080fd5b5061022b600480360360c08110156101fb57600080fd5b506001600160a01b0381358116916020810135916040820135916060810135916080820135169060a00135610d0d565b6040805192835260208301919091528051918290030190f35b34801561025057600080fd5b5061027a6004803603606081101561026757600080fd5b5080359060208101359060400135610e27565b60408051918252519081900360200190f35b34801561029857600080fd5b50610324600480360360a08110156102af57600080fd5b8135916020810135918101906060810160408201356401000000008111156102d657600080fd5b8201836020820111156102e857600080fd5b8035906020019184602083028401116401000000008311171561030a57600080fd5b91935091506001600160a01b038135169060200135610e3c565b60408051602080825283518183015283519192839290830191858101910280838360005b83811015610360578181015183820152602001610348565b505050509050019250505060405180910390f35b34801561038057600080fd5b506103246004803603604081101561039757600080fd5b813591908101906040810160208201356401000000008111156103b957600080fd5b8201836020820111156103cb57600080fd5b803590602001918460208302840111640100000000831117156103ed57600080fd5b91908080602002602001604051908101604052809392919081815260200183836020028082843760009201919091525092955061117b945050505050565b34801561043757600080fd5b5061022b600480360361016081101561044f57600080fd5b506001600160a01b038135811691602081013582169160408201359160608101359160808201359160a08101359091169060c08101359060e081013515159060ff61010082013516906101208101359061014001356111b1565b3480156104b557600080fd5b50610324600480360360a08110156104cc57600080fd5b8135916020810135918101906060810160408201356401000000008111156104f357600080fd5b82018360208201111561050557600080fd5b8035906020019184602083028401116401000000008311171561052757600080fd5b91935091506001600160a01b0381351690602001356112ab565b34801561054d57600080fd5b50610324600480360360a081101561056457600080fd5b81359160208101359181019060608101604082013564010000000081111561058b57600080fd5b82018360208201111561059d57600080fd5b803590602001918460208302840111640100000000831117156105bf57600080fd5b91935091506001600160a01b0381351690602001356113f6565b3480156105e557600080fd5b5061027a60048036036101408110156105fd57600080fd5b506001600160a01b0381358116916020810135916040820135916060810135916080820135169060a08101359060c081013515159060ff60e08201351690610100810135906101200135611594565b34801561065857600080fd5b506101d1600480360360a081101561066f57600080fd5b81359160208101359181019060608101604082013564010000000081111561069657600080fd5b8201836020820111156106a857600080fd5b803590602001918460208302840111640100000000831117156106ca57600080fd5b91935091506001600160a01b0381351690602001356116a2565b3480156106f057600080fd5b506101d1600480360360a081101561070757600080fd5b81359160208101359181019060608101604082013564010000000081111561072e57600080fd5b82018360208201111561074057600080fd5b8035906020019184602083028401116401000000008311171561076257600080fd5b91935091506001600160a01b038135169060200135611937565b6103246004803603608081101561079257600080fd5b813591908101906040810160208201356401000000008111156107b457600080fd5b8201836020820111156107c657600080fd5b803590602001918460208302840111640100000000831117156107e857600080fd5b91935091506001600160a01b038135169060200135611bcd565b34801561080e57600080fd5b5061027a6004803603606081101561082557600080fd5b5080359060208101359060400135611f32565b34801561084457600080fd5b50610324600480360360a081101561085b57600080fd5b81359160208101359181019060608101604082013564010000000081111561088257600080fd5b82018360208201111561089457600080fd5b803590602001918460208302840111640100000000831117156108b657600080fd5b91935091506001600160a01b038135169060200135611f3f565b3480156108dc57600080fd5b506108e5612038565b604080516001600160a01b039092168252519081900360200190f35b34801561090d57600080fd5b506108e5612047565b34801561092257600080fd5b5061027a6004803603606081101561093957600080fd5b508035906020810135906040013561206b565b34801561095857600080fd5b5061027a600480360360c081101561096f57600080fd5b506001600160a01b0381358116916020810135916040820135916060810135916080820135169060a00135612078565b6101d1600480360360808110156109b557600080fd5b813591908101906040810160208201356401000000008111156109d757600080fd5b8201836020820111156109e957600080fd5b80359060200191846020830284011164010000000083111715610a0b57600080fd5b91935091506001600160a01b0381351690602001356121f9565b348015610a3157600080fd5b5061022b600480360360e0811015610a4857600080fd5b506001600160a01b038135811691602081013582169160408201359160608101359160808201359160a08101359091169060c00135612597565b348015610a8e57600080fd5b506108e56127f4565b348015610aa357600080fd5b5061032460048036036040811015610aba57600080fd5b81359190810190604081016020820135640100000000811115610adc57600080fd5b820183602082011115610aee57600080fd5b80359060200191846020830284011164010000000083111715610b1057600080fd5b919080806020026020016040519081016040528093929190818152602001838360200280828437600092019190915250929550612818945050505050565b348015610b5a57600080fd5b5061022b6004803603610140811015610b7257600080fd5b506001600160a01b0381358116916020810135916040820135916060810135916080820135169060a08101359060c081013515159060ff60e08201351690610100810135906101200135612845565b348015610bcd57600080fd5b50610c236004803603610100811015610be557600080fd5b506001600160a01b038135811691602081013582169160408201359160608101359160808201359160a08101359160c0820135169060e00135612959565b60408051938452602084019290925282820152519081900360600190f35b610c23600480360360c0811015610c5757600080fd5b506001600160a01b0381358116916020810135916040820135916060810135916080820135169060a00135612a8d565b61032460048036036080811015610c9d57600080fd5b81359190810190604081016020820135640100000000811115610cbf57600080fd5b820183602082011115610cd157600080fd5b80359060200191846020830284011164010000000083111715610cf357600080fd5b91935091506001600160a01b038135169060200135612d2a565b6000808242811015610d54576040805162461bcd60e51b8152602060048201526018602482015260008051602061476b833981519152604482015290519081900360640190fd5b610d83897f00000000000000000000000000000000000000000000000000000000000000008a8a8a308a612597565b9093509150610d938986856130be565b7f00000000000000000000000000000000000000000000000000000000000000006001600160a01b0316632e1a7d4d836040518263ffffffff1660e01b815260040180828152602001915050600060405180830381600087803b158015610df957600080fd5b505af1158015610e0d573d6000803e3d6000fd5b50505050610e1b8583613240565b50965096945050505050565b6000610e34848484613338565b949350505050565b60608142811015610e82576040805162461bcd60e51b8152602060048201526018602482015260008051602061476b833981519152604482015290519081900360640190fd5b6001600160a01b037f00000000000000000000000000000000000000000000000000000000000000001686866000198101818110610ebc57fe5b905060200201356001600160a01b03166001600160a01b031614610f27576040805162461bcd60e51b815260206004820152601d60248201527f556e69737761705632526f757465723a20494e56414c49445f50415448000000604482015290519081900360640190fd5b610f857f00000000000000000000000000000000000000000000000000000000000000008988888080602002602001604051908101604052809392919081815260200183836020028082843760009201919091525061342892505050565b91508682600184510381518110610f9857fe5b60200260200101511015610fdd5760405162461bcd60e51b815260040180806020018281038252602b8152602001806146e8602b913960400191505060405180910390fd5b61107b86866000818110610fed57fe5b905060200201356001600160a01b0316336110617f00000000000000000000000000000000000000000000000000000000000000008a8a600081811061102f57fe5b905060200201356001600160a01b03168b8b600181811061104c57fe5b905060200201356001600160a01b0316613574565b8560008151811061106e57fe5b602002602001015161364c565b6110ba828787808060200260200160405190810160405280939291908181526020018383602002808284376000920191909152503092506137be915050565b7f00000000000000000000000000000000000000000000000000000000000000006001600160a01b0316632e1a7d4d836001855103815181106110f957fe5b60200260200101516040518263ffffffff1660e01b815260040180828152602001915050600060405180830381600087803b15801561113757600080fd5b505af115801561114b573d6000803e3d6000fd5b50505050611170848360018551038151811061116357fe5b6020026020010151613240565b509695505050505050565b60606111a87f00000000000000000000000000000000000000000000000000000000000000008484613a04565b90505b92915050565b60008060006111e17f00000000000000000000000000000000000000000000000000000000000000008f8f613574565b90506000876111f0578c6111f4565b6000195b6040805163d505accf60e01b815233600482015230602482015260448101839052606481018c905260ff8a16608482015260a4810189905260c4810188905290519192506001600160a01b0384169163d505accf9160e48082019260009290919082900301818387803b15801561126a57600080fd5b505af115801561127e573d6000803e3d6000fd5b505050506112918f8f8f8f8f8f8f612597565b809450819550505050509b509b9950505050505050505050565b606081428110156112f1576040805162461bcd60e51b8152602060048201526018602482015260008051602061476b833981519152604482015290519081900360640190fd5b61134f7f00000000000000000000000000000000000000000000000000000000000000008988888080602002602001604051908101604052809392919081815260200183836020028082843760009201919091525061342892505050565b9150868260018451038151811061136257fe5b602002602001015110156113a75760405162461bcd60e51b815260040180806020018281038252602b8152602001806146e8602b913960400191505060405180910390fd5b6113b786866000818110610fed57fe5b611170828787808060200260200160405190810160405280939291908181526020018383602002808284376000920191909152508992506137be915050565b6060814281101561143c576040805162461bcd60e51b8152602060048201526018602482015260008051602061476b833981519152604482015290519081900360640190fd5b6001600160a01b037f0000000000000000000000000000000000000000000000000000000000000000168686600019810181811061147657fe5b905060200201356001600160a01b03166001600160a01b0316146114e1576040805162461bcd60e51b815260206004820152601d60248201527f556e69737761705632526f757465723a20494e56414c49445f50415448000000604482015290519081900360640190fd5b61153f7f000000000000000000000000000000000000000000000000000000000000000089888880806020026020016040519081016040528093929190818152602001838360200280828437600092019190915250613a0492505050565b9150868260008151811061154f57fe5b60200260200101511115610fdd5760405162461bcd60e51b815260040180806020018281038252602781526020018061469b6027913960400191505060405180910390fd5b6000806115e27f00000000000000000000000000000000000000000000000000000000000000008d7f0000000000000000000000000000000000000000000000000000000000000000613574565b90506000866115f1578b6115f5565b6000195b6040805163d505accf60e01b815233600482015230602482015260448101839052606481018b905260ff8916608482015260a4810188905260c4810187905290519192506001600160a01b0384169163d505accf9160e48082019260009290919082900301818387803b15801561166b57600080fd5b505af115801561167f573d6000803e3d6000fd5b505050506116918d8d8d8d8d8d612078565b9d9c50505050505050505050505050565b80428110156116e6576040805162461bcd60e51b8152602060048201526018602482015260008051602061476b833981519152604482015290519081900360640190fd5b61175b858560008181106116f657fe5b905060200201356001600160a01b0316336117557f00000000000000000000000000000000000000000000000000000000000000008989600081811061173857fe5b905060200201356001600160a01b03168a8a600181811061104c57fe5b8a61364c565b60008585600019810181811061176d57fe5b905060200201356001600160a01b03166001600160a01b03166370a08231856040518263ffffffff1660e01b815260040180826001600160a01b03166001600160a01b0316815260200191505060206040518083038186803b1580156117d257600080fd5b505afa1580156117e6573d6000803e3d6000fd5b505050506040513d60208110156117fc57600080fd5b5051604080516020888102828101820190935288825292935061183e929091899189918291850190849080828437600092019190915250889250613b3c915050565b866118f0828888600019810181811061185357fe5b905060200201356001600160a01b03166001600160a01b03166370a08231886040518263ffffffff1660e01b815260040180826001600160a01b03166001600160a01b0316815260200191505060206040518083038186803b1580156118b857600080fd5b505afa1580156118cc573d6000803e3d6000fd5b505050506040513d60208110156118e257600080fd5b50519063ffffffff613e6716565b101561192d5760405162461bcd60e51b815260040180806020018281038252602b8152602001806146e8602b913960400191505060405180910390fd5b5050505050505050565b804281101561197b576040805162461bcd60e51b8152602060048201526018602482015260008051602061476b833981519152604482015290519081900360640190fd5b6001600160a01b037f000000000000000000000000000000000000000000000000000000000000000016858560001981018181106119b557fe5b905060200201356001600160a01b03166001600160a01b031614611a20576040805162461bcd60e51b815260206004820152601d60248201527f556e69737761705632526f757465723a20494e56414c49445f50415448000000604482015290519081900360640190fd5b611a30858560008181106116f657fe5b611a6e858580806020026020016040519081016040528093929190818152602001838360200280828437600092019190915250309250613b3c915050565b604080516370a0823160e01b815230600482015290516000916001600160a01b037f000000000000000000000000000000000000000000000000000000000000000016916370a0823191602480820192602092909190829003018186803b158015611ad857600080fd5b505afa158015611aec573d6000803e3d6000fd5b505050506040513d6020811015611b0257600080fd5b5051905086811015611b455760405162461bcd60e51b815260040180806020018281038252602b8152602001806146e8602b913960400191505060405180910390fd5b7f00000000000000000000000000000000000000000000000000000000000000006001600160a01b0316632e1a7d4d826040518263ffffffff1660e01b815260040180828152602001915050600060405180830381600087803b158015611bab57600080fd5b505af1158015611bbf573d6000803e3d6000fd5b5050505061192d8482613240565b60608142811015611c13576040805162461bcd60e51b8152602060048201526018602482015260008051602061476b833981519152604482015290519081900360640190fd5b7f00000000000000000000000000000000000000000000000000000000000000006001600160a01b031686866000818110611c4a57fe5b905060200201356001600160a01b03166001600160a01b031614611cb5576040805162461bcd60e51b815260206004820152601d60248201527f556e69737761705632526f757465723a20494e56414c49445f50415448000000604482015290519081900360640190fd5b611d137f00000000000000000000000000000000000000000000000000000000000000003488888080602002602001604051908101604052809392919081815260200183836020028082843760009201919091525061342892505050565b91508682600184510381518110611d2657fe5b60200260200101511015611d6b5760405162461bcd60e51b815260040180806020018281038252602b8152602001806146e8602b913960400191505060405180910390fd5b7f00000000000000000000000000000000000000000000000000000000000000006001600160a01b031663d0e30db083600081518110611da757fe5b60200260200101516040518263ffffffff1660e01b81526004016000604051808303818588803b158015611dda57600080fd5b505af1158015611dee573d6000803e3d6000fd5b50505050507f00000000000000000000000000000000000000000000000000000000000000006001600160a01b031663a9059cbb611e537f00000000000000000000000000000000000000000000000000000000000000008989600081811061173857fe5b84600081518110611e6057fe5b60200260200101516040518363ffffffff1660e01b815260040180836001600160a01b03166001600160a01b0316815260200182815260200192505050602060405180830381600087803b158015611eb757600080fd5b505af1158015611ecb573d6000803e3d6000fd5b505050506040513d6020811015611ee157600080fd5b5051611ee957fe5b611f28828787808060200260200160405190810160405280939291908181526020018383602002808284376000920191909152508992506137be915050565b5095945050505050565b6000610e34848484613ebf565b60608142811015611f85576040805162461bcd60e51b8152602060048201526018602482015260008051602061476b833981519152604482015290519081900360640190fd5b611fe37f000000000000000000000000000000000000000000000000000000000000000089888880806020026020016040519081016040528093929190818152602001838360200280828437600092019190915250613a0492505050565b91508682600081518110611ff357fe5b602002602001015111156113a75760405162461bcd60e51b815260040180806020018281038252602781526020018061469b6027913960400191505060405180910390fd5b6000546001600160a01b031681565b7f000000000000000000000000000000000000000000000000000000000000000081565b6000610e34848484613faf565b600081428110156120be576040805162461bcd60e51b8152602060048201526018602482015260008051602061476b833981519152604482015290519081900360640190fd5b6120ed887f00000000000000000000000000000000000000000000000000000000000000008989893089612597565b604080516370a0823160e01b8152306004820152905191945061217192508a9187916001600160a01b038416916370a0823191602480820192602092909190829003018186803b15801561214057600080fd5b505afa158015612154573d6000803e3d6000fd5b505050506040513d602081101561216a57600080fd5b50516130be565b7f00000000000000000000000000000000000000000000000000000000000000006001600160a01b0316632e1a7d4d836040518263ffffffff1660e01b815260040180828152602001915050600060405180830381600087803b1580156121d757600080fd5b505af11580156121eb573d6000803e3d6000fd5b505050506111708483613240565b804281101561223d576040805162461bcd60e51b8152602060048201526018602482015260008051602061476b833981519152604482015290519081900360640190fd5b7f00000000000000000000000000000000000000000000000000000000000000006001600160a01b03168585600081811061227457fe5b905060200201356001600160a01b03166001600160a01b0316146122df576040805162461bcd60e51b815260206004820152601d60248201527f556e69737761705632526f757465723a20494e56414c49445f50415448000000604482015290519081900360640190fd5b60003490507f00000000000000000000000000000000000000000000000000000000000000006001600160a01b031663d0e30db0826040518263ffffffff1660e01b81526004016000604051808303818588803b15801561233f57600080fd5b505af1158015612353573d6000803e3d6000fd5b50505050507f00000000000000000000000000000000000000000000000000000000000000006001600160a01b031663a9059cbb6123b87f00000000000000000000000000000000000000000000000000000000000000008989600081811061173857fe5b836040518363ffffffff1660e01b815260040180836001600160a01b03166001600160a01b0316815260200182815260200192505050602060405180830381600087803b15801561240857600080fd5b505af115801561241c573d6000803e3d6000fd5b505050506040513d602081101561243257600080fd5b505161243a57fe5b60008686600019810181811061244c57fe5b905060200201356001600160a01b03166001600160a01b03166370a08231866040518263ffffffff1660e01b815260040180826001600160a01b03166001600160a01b0316815260200191505060206040518083038186803b1580156124b157600080fd5b505afa1580156124c5573d6000803e3d6000fd5b505050506040513d60208110156124db57600080fd5b5051604080516020898102828101820190935289825292935061251d9290918a918a918291850190849080828437600092019190915250899250613b3c915050565b876118f0828989600019810181811061253257fe5b905060200201356001600160a01b03166001600160a01b03166370a08231896040518263ffffffff1660e01b815260040180826001600160a01b03166001600160a01b0316815260200191505060206040518083038186803b1580156118b857600080fd5b60008082428110156125de576040805162461bcd60e51b8152602060048201526018602482015260008051602061476b833981519152604482015290519081900360640190fd5b600061260b7f00000000000000000000000000000000000000000000000000000000000000008c8c613574565b604080516323b872dd60e01b81523360048201526001600160a01b03831660248201819052604482018d9052915192935090916323b872dd916064808201926020929091908290030181600087803b15801561266657600080fd5b505af115801561267a573d6000803e3d6000fd5b505050506040513d602081101561269057600080fd5b5050604080517f89afcb440000000000000000000000000000000000000000000000000000000081526001600160a01b03888116600483015282516000938493928616926389afcb44926024808301939282900301818787803b1580156126f657600080fd5b505af115801561270a573d6000803e3d6000fd5b505050506040513d604081101561272057600080fd5b5080516020909101519092509050600061273a8e8e61405b565b509050806001600160a01b03168e6001600160a01b03161461275d578183612760565b82825b90975095508a8710156127a45760405162461bcd60e51b81526004018080602001828103825260268152602001806146c26026913960400191505060405180910390fd5b898610156127e35760405162461bcd60e51b81526004018080602001828103825260268152602001806146286026913960400191505060405180910390fd5b505050505097509795505050505050565b7f000000000000000000000000000000000000000000000000000000000000000081565b60606111a87f00000000000000000000000000000000000000000000000000000000000000008484613428565b60008060006128957f00000000000000000000000000000000000000000000000000000000000000008e7f0000000000000000000000000000000000000000000000000000000000000000613574565b90506000876128a4578c6128a8565b6000195b6040805163d505accf60e01b815233600482015230602482015260448101839052606481018c905260ff8a16608482015260a4810189905260c4810188905290519192506001600160a01b0384169163d505accf9160e48082019260009290919082900301818387803b15801561291e57600080fd5b505af1158015612932573d6000803e3d6000fd5b505050506129448e8e8e8e8e8e610d0d565b909f909e509c50505050505050505050505050565b600080600083428110156129a2576040805162461bcd60e51b8152602060048201526018602482015260008051602061476b833981519152604482015290519081900360640190fd5b6129b08c8c8c8c8c8c614139565b909450925060006129e27f00000000000000000000000000000000000000000000000000000000000000008e8e613574565b90506129f08d33838861364c565b6129fc8c33838761364c565b60008054604080516335313c2160e11b81526001600160a01b039283166004820152905191841692636a627842926024808401936020939083900390910190829087803b158015612a4c57600080fd5b505af1158015612a60573d6000803e3d6000fd5b505050506040513d6020811015612a7657600080fd5b5051949d939c50939a509198505050505050505050565b60008060008342811015612ad6576040805162461bcd60e51b8152602060048201526018602482015260008051602061476b833981519152604482015290519081900360640190fd5b612b048a7f00000000000000000000000000000000000000000000000000000000000000008b348c8c614139565b90945092506000612b567f00000000000000000000000000000000000000000000000000000000000000008c7f0000000000000000000000000000000000000000000000000000000000000000613574565b9050612b648b33838861364c565b7f00000000000000000000000000000000000000000000000000000000000000006001600160a01b031663d0e30db0856040518263ffffffff1660e01b81526004016000604051808303818588803b158015612bbf57600080fd5b505af1158015612bd3573d6000803e3d6000fd5b50505050507f00000000000000000000000000000000000000000000000000000000000000006001600160a01b031663a9059cbb82866040518363ffffffff1660e01b815260040180836001600160a01b03166001600160a01b0316815260200182815260200192505050602060405180830381600087803b158015612c5857600080fd5b505af1158015612c6c573d6000803e3d6000fd5b505050506040513d6020811015612c8257600080fd5b5051612c8a57fe5b60008054604080516335313c2160e11b81526001600160a01b039283166004820152905191841692636a627842926024808401936020939083900390910190829087803b158015612cda57600080fd5b505af1158015612cee573d6000803e3d6000fd5b505050506040513d6020811015612d0457600080fd5b5051925034841015612d1c57612d1c33853403613240565b505096509650969350505050565b60608142811015612d70576040805162461bcd60e51b8152602060048201526018602482015260008051602061476b833981519152604482015290519081900360640190fd5b7f00000000000000000000000000000000000000000000000000000000000000006001600160a01b031686866000818110612da757fe5b905060200201356001600160a01b03166001600160a01b031614612e12576040805162461bcd60e51b815260206004820152601d60248201527f556e69737761705632526f757465723a20494e56414c49445f50415448000000604482015290519081900360640190fd5b612e707f000000000000000000000000000000000000000000000000000000000000000088888880806020026020016040519081016040528093929190818152602001838360200280828437600092019190915250613a0492505050565b91503482600081518110612e8057fe5b60200260200101511115612ec55760405162461bcd60e51b815260040180806020018281038252602781526020018061469b6027913960400191505060405180910390fd5b7f00000000000000000000000000000000000000000000000000000000000000006001600160a01b031663d0e30db083600081518110612f0157fe5b60200260200101516040518263ffffffff1660e01b81526004016000604051808303818588803b158015612f3457600080fd5b505af1158015612f48573d6000803e3d6000fd5b50505050507f00000000000000000000000000000000000000000000000000000000000000006001600160a01b031663a9059cbb612fad7f00000000000000000000000000000000000000000000000000000000000000008989600081811061173857fe5b84600081518110612fba57fe5b60200260200101516040518363ffffffff1660e01b815260040180836001600160a01b03166001600160a01b0316815260200182815260200192505050602060405180830381600087803b15801561301157600080fd5b505af1158015613025573d6000803e3d6000fd5b505050506040513d602081101561303b57600080fd5b505161304357fe5b613082828787808060200260200160405190810160405280939291908181526020018383602002808284376000920191909152508992506137be915050565b8160008151811061308f57fe5b6020026020010151341115611f2857611f2833836000815181106130af57fe5b60200260200101513403613240565b604080516001600160a01b038481166024830152604480830185905283518084039091018152606490920183526020820180517bffffffffffffffffffffffffffffffffffffffffffffffffffffffff167fa9059cbb00000000000000000000000000000000000000000000000000000000178152925182516000946060949389169392918291908083835b602083106131695780518252601f19909201916020918201910161314a565b6001836020036101000a0380198251168184511680821785525050505050509050019150506000604051808303816000865af19150503d80600081146131cb576040519150601f19603f3d011682016040523d82523d6000602084013e6131d0565b606091505b50915091508180156131fe5750805115806131fe57508080602001905160208110156131fb57600080fd5b50515b6132395760405162461bcd60e51b815260040180806020018281038252602d815260200180614713602d913960400191505060405180910390fd5b5050505050565b604080516000808252602082019092526001600160a01b0384169083906040518082805190602001908083835b6020831061328c5780518252601f19909201916020918201910161326d565b6001836020036101000a03801982511681845116808217855250505050505090500191505060006040518083038185875af1925050503d80600081146132ee576040519150601f19603f3d011682016040523d82523d6000602084013e6132f3565b606091505b50509050806133335760405162461bcd60e51b81526004018080602001828103825260348152602001806145cf6034913960400191505060405180910390fd5b505050565b60008084116133785760405162461bcd60e51b815260040180806020018281038252602b815260200180614740602b913960400191505060405180910390fd5b6000831180156133885750600082115b6133c35760405162461bcd60e51b815260040180806020018281038252602881526020018061464e6028913960400191505060405180910390fd5b60006133d7856103e563ffffffff6143df16565b905060006133eb828563ffffffff6143df16565b9050600061341183613405886103e863ffffffff6143df16565b9063ffffffff61444b16565b905080828161341c57fe5b04979650505050505050565b6060600282511015613481576040805162461bcd60e51b815260206004820152601e60248201527f556e697377617056324c6962726172793a20494e56414c49445f504154480000604482015290519081900360640190fd5b815167ffffffffffffffff8111801561349957600080fd5b506040519080825280602002602001820160405280156134c3578160200160208202803683370190505b50905082816000815181106134d457fe5b60200260200101818152505060005b600183510381101561356c576000806135268786858151811061350257fe5b602002602001015187866001018151811061351957fe5b60200260200101516144a3565b9150915061354884848151811061353957fe5b60200260200101518383613338565b84846001018151811061355757fe5b602090810291909101015250506001016134e3565b509392505050565b6000806000613583858561405b565b604080516bffffffffffffffffffffffff19606094851b811660208084019190915293851b81166034830152825160288184030181526048830184528051908501207fff0000000000000000000000000000000000000000000000000000000000000060688401529a90941b9093166069840152607d8301989098527f2f3c8e680a5bb21bf0825697e1fd9db809546f3ae83afba3f99016c20e99e021609d808401919091528851808403909101815260bd909201909752805196019590952095945050505050565b604080516001600160a01b0385811660248301528481166044830152606480830185905283518084039091018152608490920183526020820180517bffffffffffffffffffffffffffffffffffffffffffffffffffffffff166323b872dd60e01b17815292518251600094606094938a169392918291908083835b602083106136e65780518252601f1990920191602091820191016136c7565b6001836020036101000a0380198251168184511680821785525050505050509050019150506000604051808303816000865af19150503d8060008114613748576040519150601f19603f3d011682016040523d82523d6000602084013e61374d565b606091505b509150915081801561377b57508051158061377b575080806020019051602081101561377857600080fd5b50515b6137b65760405162461bcd60e51b815260040180806020018281038252603181526020018061459e6031913960400191505060405180910390fd5b505050505050565b60005b60018351038110156139fe576000808483815181106137dc57fe5b60200260200101518584600101815181106137f357fe5b602002602001015191509150600061380b838361405b565b509050600087856001018151811061381f57fe5b60200260200101519050600080836001600160a01b0316866001600160a01b03161461384d57826000613851565b6000835b91509150600060028a5103881061386857886138a9565b6138a97f0000000000000000000000000000000000000000000000000000000000000000878c8b6002018151811061389c57fe5b6020026020010151613574565b90506138d67f00000000000000000000000000000000000000000000000000000000000000008888613574565b6001600160a01b031663022c0d9f84848460006040519080825280601f01601f191660200182016040528015613913576020820181803683370190505b506040518563ffffffff1660e01b815260040180858152602001848152602001836001600160a01b03166001600160a01b0316815260200180602001828103825283818151815260200191508051906020019080838360005b8381101561398457818101518382015260200161396c565b50505050905090810190601f1680156139b15780820380516001836020036101000a031916815260200191505b5095505050505050600060405180830381600087803b1580156139d357600080fd5b505af11580156139e7573d6000803e3d6000fd5b5050600190990198506137c1975050505050505050565b50505050565b6060600282511015613a5d576040805162461bcd60e51b815260206004820152601e60248201527f556e697377617056324c6962726172793a20494e56414c49445f504154480000604482015290519081900360640190fd5b815167ffffffffffffffff81118015613a7557600080fd5b50604051908082528060200260200182016040528015613a9f578160200160208202803683370190505b5090508281600183510381518110613ab357fe5b60209081029190910101528151600019015b801561356c57600080613af587866001860381518110613ae157fe5b602002602001015187868151811061351957fe5b91509150613b17848481518110613b0857fe5b60200260200101518383613ebf565b846001850381518110613b2657fe5b6020908102919091010152505060001901613ac5565b60005b600183510381101561333357600080848381518110613b5a57fe5b6020026020010151858460010181518110613b7157fe5b6020026020010151915091506000613b89838361405b565b5090506000613bb97f00000000000000000000000000000000000000000000000000000000000000008585613574565b9050600080600080846001600160a01b0316630902f1ac6040518163ffffffff1660e01b815260040160606040518083038186803b158015613bfa57600080fd5b505afa158015613c0e573d6000803e3d6000fd5b505050506040513d6060811015613c2457600080fd5b5080516020909101516dffffffffffffffffffffffffffff91821693501690506000806001600160a01b038a811690891614613c61578284613c64565b83835b91509150613cc2828b6001600160a01b03166370a082318a6040518263ffffffff1660e01b815260040180826001600160a01b03166001600160a01b0316815260200191505060206040518083038186803b1580156118b857600080fd5b9550613ccf868383613338565b945050505050600080856001600160a01b0316886001600160a01b031614613cf957826000613cfd565b6000835b91509150600060028c51038a10613d14578a613d48565b613d487f0000000000000000000000000000000000000000000000000000000000000000898e8d6002018151811061389c57fe5b60408051600080825260208201928390527f022c0d9f00000000000000000000000000000000000000000000000000000000835260248201878152604483018790526001600160a01b038086166064850152608060848501908152845160a48601819052969750908c169563022c0d9f958a958a958a9591949193919260c486019290918190849084905b83811015613deb578181015183820152602001613dd3565b50505050905090810190601f168015613e185780820380516001836020036101000a031916815260200191505b5095505050505050600060405180830381600087803b158015613e3a57600080fd5b505af1158015613e4e573d6000803e3d6000fd5b50506001909b019a50613b3f9950505050505050505050565b808203828111156111ab576040805162461bcd60e51b815260206004820152601560248201527f64732d6d6174682d7375622d756e646572666c6f770000000000000000000000604482015290519081900360640190fd5b6000808411613eff5760405162461bcd60e51b815260040180806020018281038252602c815260200180614572602c913960400191505060405180910390fd5b600083118015613f0f5750600082115b613f4a5760405162461bcd60e51b815260040180806020018281038252602881526020018061464e6028913960400191505060405180910390fd5b6000613f6e6103e8613f62868863ffffffff6143df16565b9063ffffffff6143df16565b90506000613f886103e5613f62868963ffffffff613e6716565b9050613fa56001828481613f9857fe5b049063ffffffff61444b16565b9695505050505050565b6000808411613fef5760405162461bcd60e51b81526004018080602001828103825260258152602001806146766025913960400191505060405180910390fd5b600083118015613fff5750600082115b61403a5760405162461bcd60e51b815260040180806020018281038252602881526020018061464e6028913960400191505060405180910390fd5b8261404b858463ffffffff6143df16565b8161405257fe5b04949350505050565b600080826001600160a01b0316846001600160a01b031614156140af5760405162461bcd60e51b81526004018080602001828103825260258152602001806146036025913960400191505060405180910390fd5b826001600160a01b0316846001600160a01b0316106140cf5782846140d2565b83835b90925090506001600160a01b038216614132576040805162461bcd60e51b815260206004820152601e60248201527f556e697377617056324c6962726172793a205a45524f5f414444524553530000604482015290519081900360640190fd5b9250929050565b604080517fe6a439050000000000000000000000000000000000000000000000000000000081526001600160a01b03888116600483015287811660248301529151600092839283927f00000000000000000000000000000000000000000000000000000000000000009092169163e6a4390591604480820192602092909190829003018186803b1580156141cc57600080fd5b505afa1580156141e0573d6000803e3d6000fd5b505050506040513d60208110156141f657600080fd5b50516001600160a01b031614156142c257604080517fc9c653960000000000000000000000000000000000000000000000000000000081526001600160a01b038a81166004830152898116602483015291517f00000000000000000000000000000000000000000000000000000000000000009092169163c9c65396916044808201926020929091908290030181600087803b15801561429557600080fd5b505af11580156142a9573d6000803e3d6000fd5b505050506040513d60208110156142bf57600080fd5b50505b6000806142f07f00000000000000000000000000000000000000000000000000000000000000008b8b6144a3565b91509150816000148015614302575080155b15614312578793508692506143d2565b600061431f898484613faf565b905087811161437257858110156143675760405162461bcd60e51b81526004018080602001828103825260268152602001806146286026913960400191505060405180910390fd5b8894509250826143d0565b600061437f898486613faf565b90508981111561438b57fe5b878110156143ca5760405162461bcd60e51b81526004018080602001828103825260268152602001806146c26026913960400191505060405180910390fd5b94508793505b505b5050965096945050505050565b60008115806143fa575050808202828282816143f757fe5b04145b6111ab576040805162461bcd60e51b815260206004820152601460248201527f64732d6d6174682d6d756c2d6f766572666c6f77000000000000000000000000604482015290519081900360640190fd5b808201828110156111ab576040805162461bcd60e51b815260206004820152601460248201527f64732d6d6174682d6164642d6f766572666c6f77000000000000000000000000604482015290519081900360640190fd5b60008060006144b2858561405b565b5090506000806144c3888888613574565b6001600160a01b0316630902f1ac6040518163ffffffff1660e01b815260040160606040518083038186803b1580156144fb57600080fd5b505afa15801561450f573d6000803e3d6000fd5b505050506040513d606081101561452557600080fd5b5080516020909101516dffffffffffffffffffffffffffff91821693501690506001600160a01b038781169084161461455f578082614562565b81815b9099909850965050505050505056fe556e697377617056324c6962726172793a20494e53554646494349454e545f4f55545055545f414d4f554e545472616e7366657248656c7065723a3a7472616e7366657246726f6d3a207472616e7366657246726f6d206661696c65645472616e7366657248656c7065723a3a736166655472616e736665724554483a20455448207472616e73666572206661696c6564556e697377617056324c6962726172793a204944454e544943414c5f414444524553534553556e69737761705632526f757465723a20494e53554646494349454e545f425f414d4f554e54556e697377617056324c6962726172793a20494e53554646494349454e545f4c4951554944495459556e697377617056324c6962726172793a20494e53554646494349454e545f414d4f554e54556e69737761705632526f757465723a204558434553534956455f494e5055545f414d4f554e54556e69737761705632526f757465723a20494e53554646494349454e545f415f414d4f554e54556e69737761705632526f757465723a20494e53554646494349454e545f4f55545055545f414d4f554e545472616e7366657248656c7065723a3a736166655472616e736665723a207472616e73666572206661696c6564556e697377617056324c6962726172793a20494e53554646494349454e545f494e5055545f414d4f554e54556e69737761705632526f757465723a20455850495245440000000000000000a264697066735822122077e47fe7689e03f658a480fde23249428e436a7bcb5d8f62d50779b43941948b64736f6c63430006060033"
}