{
  "address": "0x6Af777438a7c428f483594a3C0836849Ec19696e",
  "abi": [
    {
      "inputs": [
        {
          "internalType": "contract Xbase",
          "name": "_xbase",
          "type": "address"
        },
        {
          "internalType": "address",
          "name": "_devaddr",
          "type": "address"
        },
        {
          "internalType": "address",
          "name": "_feeAddress",
          "type": "address"
        },
        {
          "internalType": "uint256",
          "name": "_XbasePerBlock",
          "type": "uint256"
        },
        {
          "internalType": "uint256",
          "name": "_startBlock",
          "type": "uint256"
        }
      ],
      "stateMutability": "nonpayable",
      "type": "constructor"
    },
    {
      "anonymous": false,
      "inputs": [
        {
          "indexed": true,
          "internalType": "address",
          "name": "user",
          "type": "address"
        },
        {
          "indexed": true,
          "internalType": "uint256",
          "name": "pid",
          "type": "uint256"
        },
        {
          "indexed": false,
          "internalType": "uint256",
          "name": "amount",
          "type": "uint256"
        }
      ],
      "name": "Deposit",
      "type": "event"
    },
    {
      "anonymous": false,
      "inputs": [
        {
          "indexed": true,
          "internalType": "address",
          "name": "user",
          "type": "address"
        },
        {
          "indexed": true,
          "internalType": "uint256",
          "name": "pid",
          "type": "uint256"
        },
        {
          "indexed": false,
          "internalType": "uint256",
          "name": "amount",
          "type": "uint256"
        }
      ],
      "name": "EmergencyWithdraw",
      "type": "event"
    },
    {
      "anonymous": false,
      "inputs": [
        {
          "indexed": true,
          "internalType": "address",
          "name": "previousOwner",
          "type": "address"
        },
        {
          "indexed": true,
          "internalType": "address",
          "name": "newOwner",
          "type": "address"
        }
      ],
      "name": "OwnershipTransferred",
      "type": "event"
    },
    {
      "anonymous": false,
      "inputs": [
        {
          "indexed": true,
          "internalType": "address",
          "name": "user",
          "type": "address"
        },
        {
          "indexed": true,
          "internalType": "address",
          "name": "newAddress",
          "type": "address"
        }
      ],
      "name": "SetDevAddress",
      "type": "event"
    },
    {
      "anonymous": false,
      "inputs": [
        {
          "indexed": true,
          "internalType": "address",
          "name": "user",
          "type": "address"
        },
        {
          "indexed": true,
          "internalType": "address",
          "name": "newAddress",
          "type": "address"
        }
      ],
      "name": "SetFeeAddress",
      "type": "event"
    },
    {
      "anonymous": false,
      "inputs": [
        {
          "indexed": true,
          "internalType": "address",
          "name": "user",
          "type": "address"
        },
        {
          "indexed": false,
          "internalType": "uint256",
          "name": "XbasePerBlock",
          "type": "uint256"
        }
      ],
      "name": "UpdateEmissionRate",
      "type": "event"
    },
    {
      "anonymous": false,
      "inputs": [
        {
          "indexed": false,
          "internalType": "uint256",
          "name": "newStartBlock",
          "type": "uint256"
        }
      ],
      "name": "UpdateStartBlock",
      "type": "event"
    },
    {
      "anonymous": false,
      "inputs": [
        {
          "indexed": true,
          "internalType": "address",
          "name": "user",
          "type": "address"
        },
        {
          "indexed": true,
          "internalType": "uint256",
          "name": "pid",
          "type": "uint256"
        },
        {
          "indexed": false,
          "internalType": "uint256",
          "name": "amount",
          "type": "uint256"
        }
      ],
      "name": "Withdraw",
      "type": "event"
    },
    {
      "anonymous": false,
      "inputs": [
        {
          "indexed": true,
          "internalType": "uint256",
          "name": "pid",
          "type": "uint256"
        },
        {
          "indexed": false,
          "internalType": "address",
          "name": "lpToken",
          "type": "address"
        },
        {
          "indexed": false,
          "internalType": "uint256",
          "name": "allocPoint",
          "type": "uint256"
        },
        {
          "indexed": false,
          "internalType": "uint256",
          "name": "depositFeeBP",
          "type": "uint256"
        }
      ],
      "name": "addPool",
      "type": "event"
    },
    {
      "anonymous": false,
      "inputs": [
        {
          "indexed": true,
          "internalType": "uint256",
          "name": "pid",
          "type": "uint256"
        },
        {
          "indexed": false,
          "internalType": "address",
          "name": "lpToken",
          "type": "address"
        },
        {
          "indexed": false,
          "internalType": "uint256",
          "name": "allocPoint",
          "type": "uint256"
        },
        {
          "indexed": false,
          "internalType": "uint256",
          "name": "depositFeeBP",
          "type": "uint256"
        }
      ],
      "name": "setPool",
      "type": "event"
    },
    {
      "inputs": [],
      "name": "MAX_EMISSION_RATE",
      "outputs": [
        {
          "internalType": "uint256",
          "name": "",
          "type": "uint256"
        }
      ],
      "stateMutability": "view",
      "type": "function"
    },
    {
      "inputs": [],
      "name": "XbasePerBlock",
      "outputs": [
        {
          "internalType": "uint256",
          "name": "",
          "type": "uint256"
        }
      ],
      "stateMutability": "view",
      "type": "function"
    },
    {
      "inputs": [
        {
          "internalType": "uint256",
          "name": "_allocPoint",
          "type": "uint256"
        },
        {
          "internalType": "contract IERC20",
          "name": "_lpToken",
          "type": "address"
        },
        {
          "internalType": "uint16",
          "name": "_depositFeeBP",
          "type": "uint16"
        },
        {
          "internalType": "bool",
          "name": "_withUpdate",
          "type": "bool"
        }
      ],
      "name": "add",
      "outputs": [],
      "stateMutability": "nonpayable",
      "type": "function"
    },
    {
      "inputs": [],
      "name": "allPools",
      "outputs": [
        {
          "components": [
            {
              "internalType": "contract IERC20",
              "name": "lpToken",
              "type": "address"
            },
            {
              "internalType": "uint256",
              "name": "allocPoint",
              "type": "uint256"
            },
            {
              "internalType": "uint256",
              "name": "lastRewardBlock",
              "type": "uint256"
            },
            {
              "internalType": "uint256",
              "name": "accXbasePerShare",
              "type": "uint256"
            },
            {
              "internalType": "uint16",
              "name": "depositFeeBP",
              "type": "uint16"
            },
            {
              "internalType": "uint256",
              "name": "lpSupply",
              "type": "uint256"
            }
          ],
          "internalType": "struct MasterChef.PoolInfo[]",
          "name": "",
          "type": "tuple[]"
        }
      ],
      "stateMutability": "view",
      "type": "function"
    },
    {
      "inputs": [
        {
          "internalType": "uint256",
          "name": "_pid",
          "type": "uint256"
        },
        {
          "internalType": "uint256",
          "name": "_amount",
          "type": "uint256"
        }
      ],
      "name": "deposit",
      "outputs": [],
      "stateMutability": "nonpayable",
      "type": "function"
    },
    {
      "inputs": [],
      "name": "devaddr",
      "outputs": [
        {
          "internalType": "address",
          "name": "",
          "type": "address"
        }
      ],
      "stateMutability": "view",
      "type": "function"
    },
    {
      "inputs": [
        {
          "internalType": "uint256",
          "name": "_pid",
          "type": "uint256"
        }
      ],
      "name": "emergencyWithdraw",
      "outputs": [],
      "stateMutability": "nonpayable",
      "type": "function"
    },
    {
      "inputs": [],
      "name": "feeAddress",
      "outputs": [
        {
          "internalType": "address",
          "name": "",
          "type": "address"
        }
      ],
      "stateMutability": "view",
      "type": "function"
    },
    {
      "inputs": [
        {
          "internalType": "uint256",
          "name": "_from",
          "type": "uint256"
        },
        {
          "internalType": "uint256",
          "name": "_to",
          "type": "uint256"
        }
      ],
      "name": "getMultiplier",
      "outputs": [
        {
          "internalType": "uint256",
          "name": "",
          "type": "uint256"
        }
      ],
      "stateMutability": "pure",
      "type": "function"
    },
    {
      "inputs": [],
      "name": "massUpdatePools",
      "outputs": [],
      "stateMutability": "nonpayable",
      "type": "function"
    },
    {
      "inputs": [],
      "name": "owner",
      "outputs": [
        {
          "internalType": "address",
          "name": "",
          "type": "address"
        }
      ],
      "stateMutability": "view",
      "type": "function"
    },
    {
      "inputs": [
        {
          "internalType": "uint256",
          "name": "_pid",
          "type": "uint256"
        },
        {
          "internalType": "address",
          "name": "_user",
          "type": "address"
        }
      ],
      "name": "pendingXbase",
      "outputs": [
        {
          "internalType": "uint256",
          "name": "",
          "type": "uint256"
        }
      ],
      "stateMutability": "view",
      "type": "function"
    },
    {
      "inputs": [
        {
          "internalType": "contract IERC20",
          "name": "",
          "type": "address"
        }
      ],
      "name": "poolExistence",
      "outputs": [
        {
          "internalType": "bool",
          "name": "",
          "type": "bool"
        }
      ],
      "stateMutability": "view",
      "type": "function"
    },
    {
      "inputs": [
        {
          "internalType": "uint256",
          "name": "",
          "type": "uint256"
        }
      ],
      "name": "poolInfo",
      "outputs": [
        {
          "internalType": "contract IERC20",
          "name": "lpToken",
          "type": "address"
        },
        {
          "internalType": "uint256",
          "name": "allocPoint",
          "type": "uint256"
        },
        {
          "internalType": "uint256",
          "name": "lastRewardBlock",
          "type": "uint256"
        },
        {
          "internalType": "uint256",
          "name": "accXbasePerShare",
          "type": "uint256"
        },
        {
          "internalType": "uint16",
          "name": "depositFeeBP",
          "type": "uint16"
        },
        {
          "internalType": "uint256",
          "name": "lpSupply",
          "type": "uint256"
        }
      ],
      "stateMutability": "view",
      "type": "function"
    },
    {
      "inputs": [],
      "name": "poolLength",
      "outputs": [
        {
          "internalType": "uint256",
          "name": "",
          "type": "uint256"
        }
      ],
      "stateMutability": "view",
      "type": "function"
    },
    {
      "inputs": [],
      "name": "renounceOwnership",
      "outputs": [],
      "stateMutability": "nonpayable",
      "type": "function"
    },
    {
      "inputs": [
        {
          "internalType": "uint256",
          "name": "_pid",
          "type": "uint256"
        },
        {
          "internalType": "uint256",
          "name": "_allocPoint",
          "type": "uint256"
        },
        {
          "internalType": "uint16",
          "name": "_depositFeeBP",
          "type": "uint16"
        },
        {
          "internalType": "bool",
          "name": "_withUpdate",
          "type": "bool"
        }
      ],
      "name": "set",
      "outputs": [],
      "stateMutability": "nonpayable",
      "type": "function"
    },
    {
      "inputs": [
        {
          "internalType": "address",
          "name": "_devaddr",
          "type": "address"
        }
      ],
      "name": "setDevAddress",
      "outputs": [],
      "stateMutability": "nonpayable",
      "type": "function"
    },
    {
      "inputs": [
        {
          "internalType": "address",
          "name": "_feeAddress",
          "type": "address"
        }
      ],
      "name": "setFeeAddress",
      "outputs": [],
      "stateMutability": "nonpayable",
      "type": "function"
    },
    {
      "inputs": [],
      "name": "startBlock",
      "outputs": [
        {
          "internalType": "uint256",
          "name": "",
          "type": "uint256"
        }
      ],
      "stateMutability": "view",
      "type": "function"
    },
    {
      "inputs": [],
      "name": "totalAllocPoint",
      "outputs": [
        {
          "internalType": "uint256",
          "name": "",
          "type": "uint256"
        }
      ],
      "stateMutability": "view",
      "type": "function"
    },
    {
      "inputs": [
        {
          "internalType": "address",
          "name": "newOwner",
          "type": "address"
        }
      ],
      "name": "transferOwnership",
      "outputs": [],
      "stateMutability": "nonpayable",
      "type": "function"
    },
    {
      "inputs": [
        {
          "internalType": "uint256",
          "name": "_XbasePerBlock",
          "type": "uint256"
        }
      ],
      "name": "updateEmissionRate",
      "outputs": [],
      "stateMutability": "nonpayable",
      "type": "function"
    },
    {
      "inputs": [
        {
          "internalType": "uint256",
          "name": "_pid",
          "type": "uint256"
        }
      ],
      "name": "updatePool",
      "outputs": [],
      "stateMutability": "nonpayable",
      "type": "function"
    },
    {
      "inputs": [
        {
          "internalType": "uint256",
          "name": "_newStartBlock",
          "type": "uint256"
        }
      ],
      "name": "updateStartBlock",
      "outputs": [],
      "stateMutability": "nonpayable",
      "type": "function"
    },
    {
      "inputs": [
        {
          "internalType": "uint256",
          "name": "",
          "type": "uint256"
        },
        {
          "internalType": "address",
          "name": "",
          "type": "address"
        }
      ],
      "name": "userInfo",
      "outputs": [
        {
          "internalType": "uint256",
          "name": "amount",
          "type": "uint256"
        },
        {
          "internalType": "uint256",
          "name": "rewardDebt",
          "type": "uint256"
        }
      ],
      "stateMutability": "view",
      "type": "function"
    },
    {
      "inputs": [
        {
          "internalType": "uint256",
          "name": "_pid",
          "type": "uint256"
        },
        {
          "internalType": "uint256",
          "name": "_amount",
          "type": "uint256"
        }
      ],
      "name": "withdraw",
      "outputs": [],
      "stateMutability": "nonpayable",
      "type": "function"
    },
    {
      "inputs": [],
      "name": "xbase",
      "outputs": [
        {
          "internalType": "contract Xbase",
          "name": "",
          "type": "address"
        }
      ],
      "stateMutability": "view",
      "type": "function"
    }
  ],
  "transactionHash": "0xaabe7a1774f2f3c0a715b9cbbf40c7f30cf450ce468f57fee1c32c9db1936ad9",
  "args": [
    "0x3BBe805587c6f5A2A4694046D9D529E54A5Bed87",
    "0xEA75962880FEb889461546a889D876E4C967218a",
    "0xEA75962880FEb889461546a889D876E4C967218a",
    "10000000000000000000",
    9999999999
  ],
  "numDeployments": 1,
  "solcInputHash": "f4e48ed80bec318a9c29bc751f3aae37",
  "bytecode": "0x608060405260006008553480156200001657600080fd5b5060405162002382380380620023828339810160408190526200003991620000f2565b6200004d620000476200009e565b620000a2565b60018055600280546001600160a01b03199081166001600160a01b0397881617909155600380548216958716959095179094556005805490941692909416919091179091556004556009556200016f565b3390565b600080546001600160a01b038381166001600160a01b0319831681178455604051919092169283917f8be0079c531659141344cd1fd0a4f28419497f9722a3daafe3b4186f6b6457e09190a35050565b600080600080600060a086880312156200010a578081fd5b8551620001178162000156565b60208701519095506200012a8162000156565b60408701519094506200013d8162000156565b6060870151608090970151959894975095949392505050565b6001600160a01b03811681146200016c57600080fd5b50565b612203806200017f6000396000f3fe608060405234801561001057600080fd5b50600436106101c45760003560e01c806384e82a33116100f9578063d0d41fe111610097578063d99ff72011610071578063d99ff72014610377578063e2bbb1581461037f578063f2fde38b14610392578063fac2b9ba146103a5576101c4565b8063d0d41fe114610349578063d49e77cd1461035c578063d963842214610364576101c4565b80638dbb1e3a116100d35780638dbb1e3a146102e057806393f1a40b146102f3578063c5c63e6514610314578063cbd258b514610329576101c4565b806384e82a33146102b25780638705fcd4146102c55780638da5cb5b146102d8576101c4565b8063436cc3d61161016657806351eb05a61161014057806351eb05a61461027c5780635312ea8e1461028f578063630b5ba1146102a2578063715018a6146102aa576101c4565b8063436cc3d614610259578063441a3e701461026157806348cd4cb114610274576101c4565b80631526fe27116101a25780631526fe271461020f57806317caf6f1146102345780632b0cd64a1461023c5780634127535814610251576101c4565b8063081e3eda146101c95780630b0180d1146101e75780630ba84cd2146101fa575b600080fd5b6101d16103b8565b6040516101de91906120c8565b60405180910390f35b6101d16101f5366004611a8a565b6103be565b61020d610208366004611a5a565b6104f6565b005b61022261021d366004611a5a565b610579565b6040516101de96959493929190611c78565b6101d16105d0565b6102446105d6565b6040516101de9190611b72565b6102446105e5565b6101d16105f4565b61020d61026f366004611b09565b610600565b6101d161078c565b61020d61028a366004611a5a565b610792565b61020d61029d366004611a5a565b610947565b61020d610a5d565b61020d610a88565b61020d6102c0366004611ab9565b610a9c565b61020d6102d3366004611a22565b610d78565b610244610e14565b6101d16102ee366004611b09565b610e23565b610306610301366004611a8a565b610e36565b6040516101de9291906120d1565b61031c610e5a565b6040516101de9190611be8565b61033c610337366004611a22565b610efc565b6040516101de9190611c6d565b61020d610357366004611a22565b610f11565b610244610fad565b61020d610372366004611b2a565b610fbc565b6101d161114f565b61020d61038d366004611b09565b611155565b61020d6103a0366004611a22565b611444565b61020d6103b3366004611a5a565b61147b565b60065490565b600080600684815481106103e257634e487b7160e01b600052603260045260246000fd5b600091825260208083208784526007825260408085206001600160a01b038916865290925292206003600690920290920190810154600282015491935090431180156104315750600583015415155b801561043f57506000600854115b156104bb576000610454846002015443610e23565b90506000610487600854610481876001015461047b6004548761155d90919063ffffffff16565b9061155d565b90611569565b90506104b66104af8660050154610481670de0b6b3a76400008561155d90919063ffffffff16565b8490611575565b925050505b6104ec82600101546104e6670de0b6b3a764000061048185876000015461155d90919063ffffffff16565b90611581565b9695505050505050565b6104fe61158d565b671bc16d674ec8000081111561052f5760405162461bcd60e51b815260040161052690611daf565b60405180910390fd5b610537610a5d565b600481905560405133907fe2492e003bbe8afa53088b406f0c1cb5d9e280370fc72a74cf116ffd343c40539061056e9084906120c8565b60405180910390a250565b6006818154811061058957600080fd5b60009182526020909120600690910201805460018201546002830154600384015460048501546005909501546001600160a01b0390941695509193909261ffff9091169086565b60085481565b6002546001600160a01b031681565b6005546001600160a01b031681565b671bc16d674ec8000081565b600260015414156106235760405162461bcd60e51b815260040161052690612091565b600260018190555060006006838154811061064e57634e487b7160e01b600052603260045260246000fd5b6000918252602080832086845260078252604080852033865290925292208054600690920290920192508311156106975760405162461bcd60e51b815260040161052690611f58565b6106a084610792565b60006106d182600101546104e6670de0b6b3a76400006104818760030154876000015461155d90919063ffffffff16565b905080156106e3576106e333826115cc565b83156107225781546106f59085611581565b8255825461070d906001600160a01b0316338661178e565b600583015461071c9085611581565b60058401555b6003830154825461074091670de0b6b3a7640000916104819161155d565b6001830155604051859033907ff279e6a1f5e320cca91135676d9cb6e44ca8a08c0b88342bcdb1144f6511b568906107799088906120c8565b60405180910390a3505060018055505050565b60095481565b6000600682815481106107b557634e487b7160e01b600052603260045260246000fd5b90600052602060002090600602019050806002015443116107d65750610944565b600581015415806107e957506001810154155b156107fa5743600290910155610944565b600061080a826002015443610e23565b90506000610831600854610481856001015461047b6004548761155d90919063ffffffff16565b6002546003549192506001600160a01b03908116916340c10f19911661085884600a611569565b6040518363ffffffff1660e01b8152600401610875929190611baa565b600060405180830381600087803b15801561088f57600080fd5b505af11580156108a3573d6000803e3d6000fd5b50506002546040516340c10f1960e01b81526001600160a01b0390911692506340c10f1991506108d99030908590600401611baa565b600060405180830381600087803b1580156108f357600080fd5b505af1158015610907573d6000803e3d6000fd5b5050506005840154610935915061092a9061048184670de0b6b3a764000061155d565b600385015490611575565b60038401555050436002909101555b50565b6002600154141561096a5760405162461bcd60e51b815260040161052690612091565b600260018190555060006006828154811061099557634e487b7160e01b600052603260045260246000fd5b6000918252602080832085845260078252604080852033808752935284208054858255600182019590955560069093020180549094509192916109e5916001600160a01b0391909116908361178e565b80836005015410610a095760058301546109ff9082611581565b6005840155610a11565b600060058401555b83336001600160a01b03167fbb757047c2b5f3974fe26b7c10f732e7bce710b0952a71082702781e62ae059583604051610a4b91906120c8565b60405180910390a35050600180555050565b60065460005b81811015610a8457610a7481610792565b610a7d81612179565b9050610a63565b5050565b610a9061158d565b610a9a60006117e9565b565b610aa461158d565b6001600160a01b0383166000908152600a6020526040902054839060ff1615610adf5760405162461bcd60e51b815260040161052690611f84565b6040516370a0823160e01b81526001600160a01b038516906370a0823190610b0b903090600401611b72565b60206040518083038186803b158015610b2357600080fd5b505afa158015610b37573d6000803e3d6000fd5b505050506040513d601f19601f82011682018060405250810190610b5b9190611a72565b506101908361ffff161115610b825760405162461bcd60e51b815260040161052690611d24565b8115610b9057610b90610a5d565b60006009544311610ba357600954610ba5565b435b600854909150610bb59087611575565b6008556001600160a01b038581166000818152600a602090815260408083208054600160ff199091168117909155815160c0810183529485529184018b81529084018681526060850184815261ffff8b81166080880190815260a088018781526006805480890182559881905298517ff652222313e28459528d920b65115c16c04f3efc82aaedc97be59f3f377c0d3f988a0298890180546001600160a01b03191691909b161790995593517ff652222313e28459528d920b65115c16c04f3efc82aaedc97be59f3f377c0d4087015591517ff652222313e28459528d920b65115c16c04f3efc82aaedc97be59f3f377c0d41860155517ff652222313e28459528d920b65115c16c04f3efc82aaedc97be59f3f377c0d4285015590517ff652222313e28459528d920b65115c16c04f3efc82aaedc97be59f3f377c0d438401805461ffff19169190921617905592517ff652222313e28459528d920b65115c16c04f3efc82aaedc97be59f3f377c0d449091015554610d359190612136565b7faa6642278d4bbef86d8990c37355d5d4dfe365c194106bdf7a65162268606f07868887604051610d6893929190611bc3565b60405180910390a2505050505050565b6005546001600160a01b03163314610da25760405162461bcd60e51b815260040161052690611fbb565b6001600160a01b038116610dc85760405162461bcd60e51b815260040161052690611e43565b600580546001600160a01b0319166001600160a01b03831690811790915560405133907fd44190acf9d04bdb5d3a1aafff7e6dee8b40b93dfb8c5d3f0eea4b9f4539c3f790600090a350565b6000546001600160a01b031690565b6000610e2f8284611581565b9392505050565b60076020908152600092835260408084209091529082529020805460019091015482565b60606006805480602002602001604051908101604052809291908181526020016000905b82821015610ef35760008481526020908190206040805160c0810182526006860290920180546001600160a01b031683526001808201548486015260028201549284019290925260038101546060840152600481015461ffff1660808401526005015460a08301529083529092019101610e7e565b50505050905090565b600a6020526000908152604090205460ff1681565b6001600160a01b038116610f375760405162461bcd60e51b815260040161052690611e43565b6003546001600160a01b03163314610f615760405162461bcd60e51b815260040161052690611e20565b600380546001600160a01b0319166001600160a01b03831690811790915560405133907f618c54559e94f1499a808aad71ee8729f8e74e8c48e979616328ce493a1a52e790600090a350565b6003546001600160a01b031681565b610fc461158d565b6101908261ffff161115610fea5760405162461bcd60e51b815260040161052690611ea7565b8015610ff857610ff8610a5d565b611049836110436006878154811061102057634e487b7160e01b600052603260045260246000fd5b90600052602060002090600602016001015460085461158190919063ffffffff16565b90611575565b600881905550826006858154811061107157634e487b7160e01b600052603260045260246000fd5b90600052602060002090600602016001018190555081600685815481106110a857634e487b7160e01b600052603260045260246000fd5b906000526020600020906006020160040160006101000a81548161ffff021916908361ffff160217905550837f39f0c3d078af018954b4fa56832a05a2b511afaa999b133ea3f1c487c21ed2876006868154811061111657634e487b7160e01b600052603260045260246000fd5b6000918252602090912060069091020154604051611141916001600160a01b03169087908790611bc3565b60405180910390a250505050565b60045481565b600260015414156111785760405162461bcd60e51b815260040161052690612091565b60026001819055506000600683815481106111a357634e487b7160e01b600052603260045260246000fd5b600091825260208083208684526007825260408085203386529092529220600690910290910191506111d484610792565b80541561122057600061120c82600101546104e6670de0b6b3a76400006104818760030154876000015461155d90919063ffffffff16565b9050801561121e5761121e33826115cc565b505b82156113ed5781546040516370a0823160e01b81526000916001600160a01b0316906370a0823190611256903090600401611b72565b60206040518083038186803b15801561126e57600080fd5b505afa158015611282573d6000803e3d6000fd5b505050506040513d601f19601f820116820180604052508101906112a69190611a72565b83549091506112c0906001600160a01b0316333087611839565b82546040516370a0823160e01b81526113459183916001600160a01b03909116906370a08231906112f5903090600401611b72565b60206040518083038186803b15801561130d57600080fd5b505afa158015611321573d6000803e3d6000fd5b505050506040513d601f19601f820116820180604052508101906104e69190611a72565b600484015490945061ffff16156113c8576004830154600090611375906127109061048190889061ffff1661155d565b6005548554919250611394916001600160a01b0390811691168361178e565b82546113a69082906104e69088611575565b835560058401546113bd9082906104e69088611575565b6005850155506113eb565b81546113d49085611575565b825560058301546113e59085611575565b60058401555b505b6003820154815461140b91670de0b6b3a7640000916104819161155d565b6001820155604051849033907f90890809c654f11d6e72a28fa60149770a0d11ec6c92319d6ceb2bb0a4ea1a1590610a4b9087906120c8565b61144c61158d565b6001600160a01b0381166114725760405162461bcd60e51b815260040161052690611d69565b610944816117e9565b61148361158d565b60095443106114a45760405162461bcd60e51b815260040161052690611ff2565b8043106114c35760405162461bcd60e51b815260040161052690611ce2565b60065460005b8181101561151b576000600682815481106114f457634e487b7160e01b600052603260045260246000fd5b600091825260209091206002600690920201018490555061151481612179565b90506114c9565b5060098290556040517f1ff2238e284780b094bb341b41af7e6ce294dee1da3799ae49cd0e29fbe12709906115519084906120c8565b60405180910390a15050565b6000610e2f8284612117565b6000610e2f82846120f7565b6000610e2f82846120df565b6000610e2f8284612136565b61159561185a565b6001600160a01b03166115a6610e14565b6001600160a01b031614610a9a5760405162461bcd60e51b815260040161052690611eec565b6002546040516370a0823160e01b81526000916001600160a01b0316906370a08231906115fd903090600401611b72565b60206040518083038186803b15801561161557600080fd5b505afa158015611629573d6000803e3d6000fd5b505050506040513d601f19601f8201168201806040525081019061164d9190611a72565b90506000818311156116e45760025460405163a9059cbb60e01b81526001600160a01b039091169063a9059cbb9061168b9087908690600401611baa565b602060405180830381600087803b1580156116a557600080fd5b505af11580156116b9573d6000803e3d6000fd5b505050506040513d601f19601f820116820180604052508101906116dd9190611a3e565b905061176b565b60025460405163a9059cbb60e01b81526001600160a01b039091169063a9059cbb906117169087908790600401611baa565b602060405180830381600087803b15801561173057600080fd5b505af1158015611744573d6000803e3d6000fd5b505050506040513d601f19601f820116820180604052508101906117689190611a3e565b90505b806117885760405162461bcd60e51b815260040161052690611e65565b50505050565b6117e48363a9059cbb60e01b84846040516024016117ad929190611baa565b60408051601f198184030181529190526020810180516001600160e01b03166001600160e01b03199093169290921790915261185e565b505050565b600080546001600160a01b038381166001600160a01b0319831681178455604051919092169283917f8be0079c531659141344cd1fd0a4f28419497f9722a3daafe3b4186f6b6457e09190a35050565b611788846323b872dd60e01b8585856040516024016117ad93929190611b86565b3390565b60006118b3826040518060400160405280602081526020017f5361666545524332303a206c6f772d6c6576656c2063616c6c206661696c6564815250856001600160a01b03166118ed9092919063ffffffff16565b8051909150156117e457808060200190518101906118d19190611a3e565b6117e45760405162461bcd60e51b815260040161052690612047565b60606118fc8484600085611904565b949350505050565b6060824710156119265760405162461bcd60e51b815260040161052690611dda565b61192f856119c4565b61194b5760405162461bcd60e51b815260040161052690611f21565b600080866001600160a01b031685876040516119679190611b56565b60006040518083038185875af1925050503d80600081146119a4576040519150601f19603f3d011682016040523d82523d6000602084013e6119a9565b606091505b50915091506119b98282866119d7565b979650505050505050565b6001600160a01b0381163b15155b919050565b606083156119e6575081610e2f565b8251156119f65782518084602001fd5b8160405162461bcd60e51b81526004016105269190611caf565b803561ffff811681146119d257600080fd5b600060208284031215611a33578081fd5b8135610e2f816121aa565b600060208284031215611a4f578081fd5b8151610e2f816121bf565b600060208284031215611a6b578081fd5b5035919050565b600060208284031215611a83578081fd5b5051919050565b60008060408385031215611a9c578081fd5b823591506020830135611aae816121aa565b809150509250929050565b60008060008060808587031215611ace578182fd5b843593506020850135611ae0816121aa565b9250611aee60408601611a10565b91506060850135611afe816121bf565b939692955090935050565b60008060408385031215611b1b578182fd5b50508035926020909101359150565b60008060008060808587031215611b3f578384fd5b8435935060208501359250611aee60408601611a10565b60008251611b6881846020870161214d565b9190910192915050565b6001600160a01b0391909116815260200190565b6001600160a01b039384168152919092166020820152604081019190915260600190565b6001600160a01b03929092168252602082015260400190565b6001600160a01b03939093168352602083019190915261ffff16604082015260600190565b602080825282518282018190526000919060409081850190868401855b82811015611c6057815180516001600160a01b03168552868101518786015285810151868601526060808201519086015260808082015161ffff169086015260a0908101519085015260c09093019290850190600101611c05565b5091979650505050505050565b901515815260200190565b6001600160a01b0396909616865260208601949094526040850192909252606084015261ffff16608083015260a082015260c00190565b6000602082528251806020840152611cce81604085016020870161214d565b601f01601f19169190910160400192915050565b60208082526022908201527f63616e6e6f742073657420737461727420626c6f636b20696e207468652070616040820152611cdd60f21b606082015260800190565b60208082526025908201527f6164643a20696e76616c6964206465706f7369742066656520626173697320706040820152646f696e747360d81b606082015260800190565b60208082526026908201527f4f776e61626c653a206e6577206f776e657220697320746865207a65726f206160408201526564647265737360d01b606082015260800190565b60208082526011908201527008adad2e6e6d2dedc40e8dede40d0d2ced607b1b604082015260600190565b60208082526026908201527f416464726573733a20696e73756666696369656e742062616c616e636520666f6040820152651c8818d85b1b60d21b606082015260800190565b6020808252600990820152686465763a207775743f60b81b604082015260600190565b602080825260089082015267216e6f6e7a65726f60c01b604082015260600190565b60208082526022908201527f7361666558626173655472616e736665723a207472616e73666572206661696c604082015261195960f21b606082015260800190565b60208082526025908201527f7365743a20696e76616c6964206465706f7369742066656520626173697320706040820152646f696e747360d81b606082015260800190565b6020808252818101527f4f776e61626c653a2063616c6c6572206973206e6f7420746865206f776e6572604082015260600190565b6020808252601d908201527f416464726573733a2063616c6c20746f206e6f6e2d636f6e7472616374000000604082015260600190565b6020808252601290820152711dda5d1a191c985dce881b9bdd0819dbdbd960721b604082015260600190565b60208082526019908201527f6e6f6e4475706c6963617465643a206475706c69636174656400000000000000604082015260600190565b60208082526018908201527f736574466565416464726573733a20464f5242494444454e0000000000000000604082015260600190565b60208082526035908201527f63616e6e6f74206368616e676520737461727420626c6f636b206966206661726040820152741b481a185cc8185b1c9958591e481cdd185c9d1959605a1b606082015260800190565b6020808252602a908201527f5361666545524332303a204552433230206f7065726174696f6e20646964206e6040820152691bdd081cdd58d8d9595960b21b606082015260800190565b6020808252601f908201527f5265656e7472616e637947756172643a207265656e7472616e742063616c6c00604082015260600190565b90815260200190565b918252602082015260400190565b600082198211156120f2576120f2612194565b500190565b60008261211257634e487b7160e01b81526012600452602481fd5b500490565b600081600019048311821515161561213157612131612194565b500290565b60008282101561214857612148612194565b500390565b60005b83811015612168578181015183820152602001612150565b838111156117885750506000910152565b600060001982141561218d5761218d612194565b5060010190565b634e487b7160e01b600052601160045260246000fd5b6001600160a01b038116811461094457600080fd5b801515811461094457600080fdfea264697066735822122077610b1cd9a29ba2ce36fd2bf075a1fbfd77ee73cb20f38efd37ae2e754733c364736f6c63430008010033"
}